:100000000C9492090C94AF090C94AF090C94AF09AD
:100010000C94AF090C94AF090C94AF090C94AF0980
:100020000C94AF090C94AF090C94AF090C94AF0970
:100030000C94AF090C94FC210C94AF090C94AF09FB
:100040000C94B9210C94AF090C944E1B0C94E61B34
:100050000C94AF090C94AF090C94AF090C94AF0940
:100060000C94AF090C94AF09CDE8E7EAE8E920F376
:10007000F0EEE2E5EDFC20F1E8E3EDE0EBE020F16D
:1000800020E4E0F2F7E8EAE020F0E0F1F5EEE4E069
:1000900020E2EEE7E4F3F5E000C2FBF1EEEAE8E986
:1000A00020F3F0EEE2E5EDFC20F1E8E3EDE0EBE03B
:1000B00020F120E4E0F2F7E8EAE020F0E0F1F5EEEC
:1000C000E4E020E2EEE7E4F3F5E000CDE8E7EAE87B
:1000D000E920F3F0EEE2E5EDFC20F1E8E3EDE0EB02
:1000E000E020F120E4E0F2F7E8EAE020F2E5ECEFCE
:1000F000E5F0E0F2F3F0FB20EEF5EBE0E6E4E0FE05
:10010000F9E5E920E6E8E4EAEEF1F2E800C2FBF105
:10011000EEEAE8E920F3F0EEE2E5EDFC20F1E8E3B9
:10012000EDE0EBE020F120E4E0F2F7E8EAE020F295
:10013000E5ECEFE5F0E0F2F3F0FB20EEF5EBE0E6C6
:10014000E4E0FEF9E5E920E6E8E4EAEEF1F2E800B1
:10015000CDE8E7EAE8E920F3F0EEE2E5EDFC20F196
:10016000E8E3EDE0EBE020F120E4E0F2F7E8EAE09C
:1001700020EFEEEBEEE6E5EDE8FF20E4F0EEF1F146
:10018000E5EBFF00C2FBF1EEEAE8E920F3F0EEE276
:10019000E5EDFC20F1E8E3EDE0EBE020F120E4E028
:1001A000F2F7E8EAE020EFEEEBEEE6E5EDE8FF201F
:1001B000E4F0EEF1F1E5EBFF00CDE8E7EAE8E92055
:1001C000F3F0EEE2E5EDFC20F1E8E3EDE0EBE0201A
:1001D000F120E4E0F2F7E8EAE020EAE8F1EBEEF003
:1001E000EEE4E000C2FBF1EEEAE8E920F3F0EEE233
:1001F000E5EDFC20F1E8E3EDE0EBE020F120E4E0C8
:10020000F2F7E8EAE020EAE8F1EBEEF0EEE4E000F5
:10021000CDE5F220E0EAF2E8E2EDEEF1F2E820E4EA
:10022000E0F2F7E8EAE020EAE8F1EBEEF0EEE4E0F5
:1002300000CEE1F0FBE220EDE0E3F0E5E2E0F2E504
:10024000EBFF20E4E0F2F7E8EAE020EAE8F1EBEE89
:10025000F0EEE4E000D1E8F1F2E5ECE020F1EBE8CB
:10026000F8EAEEEC20E1E5E4EDE0FF00D1E8F1F2A0
:10027000E5ECE020F1EBE8F8EAEEEC20E1EEE3E07B
:10028000F2E0FF00D6E5EFFC20F3EFF0E0E2EBE573
:10029000EDE8FF20F4EEF0F1F3EDEAEEE92020B90D
:1002A000312C20EEE1F0FBE200D6E5EFFC20F3EF8D
:1002B000F0E0E2EBE5EDE8FF20F4EEF0F1F3EDEA3B
:1002C000EEE92020B9322C20EEE1F0FBE200D6E589
:1002D000EFFC20F3EFF0E0E2EBE5EDE8FF20F4EED9
:1002E000F0F1F3EDEAEEE92020B9332C20EEE1F055
:1002F000FBE200D6E5EFFC20F3EFF0E0E2EBE5ED0A
:10030000E8FF20F4EEF0F1F3EDEAEEE92020B93455
:100310002C20EEE1F0FBE200D6E5EFFC20F3EFF05D
:10032000E0E2EBE5EDE8FF20F4EEF0F1F3EDEAEECC
:10033000E92020B9312C20E7E0ECEAEDF3F2E020EF
:10034000EDE020E7E5ECEBFE00D6E5EFFC20F3EF77
:10035000F0E0E2EBE5EDE8FF20F4EEF0F1F3EDEA9A
:10036000EEE92020B9312C20E7E0ECEAEDF3F2E0F1
:1003700020EDE0202B3132C200D6E5EFFC20F3EF78
:10038000F0E0E2EBE5EDE8FF20F4EEF0F1F3EDEA6A
:10039000EEE92020B9322C20E7E0ECEAEDF3F2E0C0
:1003A00020EDE020E7E5ECEBFE00D6E5EFFC20F3E6
:1003B000EFF0E0E2EBE5EDE8FF20F4EEF0F1F3ED35
:1003C000EAEEE92020B9322C20E7E0ECEAEDF3F286
:1003D000E020EDE0202B3132C200D6E5EFFC20F327
:1003E000EFF0E0E2EBE5EDE8FF20F4EEF0F1F3ED05
:1003F000EAEEE92020B9332C20E7E0ECEAEDF3F255
:10040000E020EDE020E7E5ECEBFE00D6E5EFFC2098
:10041000F3EFF0E0E2EBE5EDE8FF20F4EEF0F1F3CE
:10042000EDEAEEE92020B9332C20E7E0ECEAEDF329
:10043000F2E020EDE0202B3132C200D6E5EFFC20C7
:10044000F3EFF0E0E2EBE5EDE8FF20F4EEF0F1F39E
:10045000EDEAEEE92020B9342C20E7E0ECEAEDF3F8
:10046000F2E020EDE020E7E5ECEBFE00D6E5EFFC66
:1004700020F3EFF0E0E2EBE5EDE8FF20F4EEF0F141
:10048000F3EDEAEEE92020B9342C20E7E0ECEAEDC8
:10049000F3F2E020EDE0202B3132C200CEE1F0FBA0
:1004A000E220E4E0F2F7E8EAE020E4E5F2EEEDE055
:1004B000F6E8E800CDE8E7EAE8E920F3F0EEE2E567
:1004C000EDFC20F8F3ECE020E4E2E8E3E0F2E5EB19
:1004D000FF00C2FBF1EEEAE8E920F3F0EEE2E5ED21
:1004E000FC20F8F3ECE020E4E2E8E3E0F2E5EBFFE7
:1004F00000CEF8E8E1EAE020E4E0F2F7E8EAE02004
:10050000F1E8EDF5F0EEEDE8E7E0F6E8E820CAC244
:1005100000CEF8E8E1EAE020E4E0F2F7E8EAE020E3
:10052000F4E0E7FB00CDE5E8F1EFF0E0E2EDEEF11D
:10053000F2FC20F3EFF0E0E2EBE5EDE8FF20EAEB80
:10054000E0EFE0EDEEEC20EFF0EEE4F3E2EAE8209D
:10055000E0E4F1EEF0E1E5F0E000CDE5E8F1EFF008
:10056000E0E2EDEEF1F2FC20F6E5EFE820F3EFF04B
:10057000E0E2EBE5EDE8FF20E2E5EDF2E8EBFFF28B
:10058000EEF0EEEC20B93100CEF8E8E1EAE020E44C
:10059000E0F2F7E8EAE020F1EAEEF0EEF1F2E8202E
:1005A000E0E2F2EEECEEE1E8EBFF00CEF8E8E1EAA3
:1005B000E020F0E5E3F3EBFFF2EEF0E020F5EEEB08
:1005C000EEF1F2EEE3EE20F5EEE4E000CDE8E7EA4E
:1005D000EEE520E1EEF0F2EEE2EEE520EDE0EFF008
:1005E000FFE6E5EDE8E500C2FBF1EEEAEEE520E12D
:1005F000EEF0F2EEE2EEE520EDE0EFF0FFE6E5ED05
:10060000E8E500CEF8E8E1EAE020CFC7D300CEF875
:10061000E8E1EAE020CEC7D300D6E5EFFC20F3EF17
:10062000F0E0E2EBE5EDE8FF20EAEBE0EFE0EDEEF5
:10063000EC20EFF0EEE4F3E2EAE820E0E4F1EEF0A3
:10064000E1E5F0E02C20E7E0ECFBEAE0EDE8E52076
:10065000EDE0202B3132C200D6E5EFFC20F3EFF0C5
:10066000E0E2EBE5EDE8FF20EAEBE0EFE0EDEEECB9
:1006700020EFF0EEE4F3E2EAE820E0E4F1EEF0E16E
:10068000E5F0E02C20E7E0ECFBEAE0EDE8E520ED2A
:10069000E020E7E5ECEBFE00D6E5EFFC20F3EFF021
:1006A000E0E2EBE5EDE8FF20EAEBE0EFE0EDEEEC79
:1006B00020EFF0EEE4F3E2EAE820E0E4F1EEF0E12E
:1006C000E5F0E02C20EEE1F0FBE200D6E5EFFC20C7
:1006D000F3EFF0E0E2EBE5EDE8FF20F0E5EBE520FD
:1006E000E1E5EDE7EEEDE0F1EEF1E02C20E7E0EC06
:1006F000FBEAE0EDE8E520EDE020E7E5ECEBFE00CD
:10070000D6E5EFFC20F3EFF0E0E2EBE5EDE8FF20CB
:10071000F0E5EBE520E1E5EDE7EEEDE0F1EEF1E00F
:100720002C20E7E0ECFBEAE0EDE8E520EDE0202B13
:100730003132C200D6E5EFFC20F3EFF0E0E2EBE56A
:10074000EDE8FF20F0E5E3F3EBFFF2EEF0EEEC2056
:10075000F5EEEBEEF1F2EEE3EE20F5EEE4E02C2028
:10076000EFE5F0E5E3F0F3E7EAE000D6E5EFFC20A3
:10077000F3EFF0E0E2EBE5EDE8FF20F0E5E3F3EB8B
:10078000FFF2EEF0EEEC20F5EEEBEEF1F2EEE3EE42
:1007900020F5EEE4E02C20E7E0ECFBEAE0EDE8E514
:1007A00020EDE020E7E5ECEBFE00D6E5EFFC20F3E2
:1007B000EFF0E0E2EBE5EDE8FF20F0E5E3F3EBFF3F
:1007C000F2EEF0EEEC20F5EEEBEEF1F2EEE3EE20E1
:1007D000F5EEE4E02C20EEE1F0FBE220E8EBE8208F
:1007E000E7E0ECFBEAE0EDE8E520EDE0202B31323C
:1007F000C200D6E5EFFC20F3EFF0E0E2EBE5EDE838
:10080000FF20F0E5EBE520E1E5EDE7EEEDE0F1EED0
:10081000F1E02C20EEE1F0FBE200CDE5F220F1E288
:10082000FFE7E820F120E8ECECEEE1E8EBE8E7E0B8
:10083000F2EEF0EEEC00CFF0EEEFE0E4E0EDE8E514
:1008400020EDE0EFF0FFE6E5EDE8FF20E1EEF0F26D
:10085000F1E5F2E800CEF8E8E1EAE0204545505243
:100860004F4D00CEF8E8E1EAE020F1E1F0EEF1E0F2
:1008700020E1EBEEEAE020F3EFF0E0E2EBE5EDE87B
:10088000FF00000000000000000000000000183C15
:100890003C3C18180018180066666624000000002A
:1008A000000000006C6CFE6C6C6CFE6C6C00187CC4
:1008B000C6C2C07C0686C67C18000000C2C60C18E2
:1008C0003066C600003C6666663C000000000030F2
:1008D00030306000000000000000000C18303030A4
:1008E0003030180C000030180C0C0C0C0C183000B8
:1008F000000000663CFF3C66000000000000181885
:100900007E181800000000000000000000181818F1
:10091000300000000000FE000000000000000000A9
:10092000000000003030000002060C183060C0806B
:100930000000007CC6CEDEF6E6C6C67C0000183895
:100940007818181818187E00007CC6060C1830603D
:10095000C6FE00007CC606063C0606C67C00000CEF
:100960001C3C6CCCFE0C0C1E0000FEC0C0C0FC0683
:1009700006C67C00003860C0C0FCC6C6C67C00004D
:10098000FEC6060C183030303000007CC6C6C67C6F
:10099000C6C6C67C00007CC6C6C67E06060C7800AD
:1009A00000001818000000181800000000181800B7
:1009B00000001818300000060C18306030180C06C3
:1009C00000000000007E00007E0000000060301883
:1009D0000C060C18306000007CC6C60C18180018F5
:1009E0001800007CC6C6DEDEDEDCC07C00001038ED
:1009F0006CC6C6FEC6C6C60000FC6666667C666639
:100A000066FC00003C66C2C0C0C0C2663C0000F884
:100A10006C66666666666CF80000FE6662687868FA
:100A20006266FE0000FE66626878686060F0000042
:100A30003C66C2C0C0DEC6663A0000C6C6C6C6FE78
:100A4000C6C6C6C600003C181818181818183C006E
:100A5000001E0C0C0C0C0CCCCC780000E6666C6C08
:100A6000786C6C66E60000F060606060606266FE54
:100A70000000C6EEFEFED6C6C6C6C60000C6E6F636
:100A8000FEDECEC6C6C60000386CC6C6C6C6C66C7C
:100A9000380000FC6666667C606060F000007CC622
:100AA000C6C6C6D6DE7C0C0E00FC6666667C6C662E
:100AB00066E600007CC6C660380CC6C67C00007EB8
:100AC0007E5A18181818183C0000C6C6C6C6C6C6F6
:100AD000C6C67C0000C6C6C6C6C6C66C38100000B6
:100AE000C6C6C6C6D6D6FE7C6C0000C6C66C3838F4
:100AF000386CC6C60000666666663C1818183C006E
:100B000000FEC68C183060C2C6FE00003C3030309B
:100B1000303030303C000080C0E070381C0E0602DF
:100B200000003C0C0C0C0C0C0C0C3C00386CC6008F
:100B300000000000000000000000000000000000B5
:100B4000000030180000000000000000000000005D
:100B500000780C7CCCCC760000E06060786C666637
:100B6000667C00000000007CC6C0C0C67C00001C83
:100B70000C0C3C6CCCCCCC7600000000007CC6FE9B
:100B8000C0C67C0000386C6460F0606060F00000FB
:100B900000000076CCCCCC7C0CCC00E060606C76A5
:100BA000666666E6000018180038181818183C0029
:100BB000000606000E06060606666600E060606631
:100BC0006C786C66E6000038181818181818183C6D
:100BD0000000000000ECFED6D6D6C60000000000E3
:100BE000DC666666666600000000007CC6C6C6C697
:100BF0007C0000000000DC6666667C60600000002F
:100C00000076CCCCCC7C0C0C00000000DC7666605E
:100C100060F000000000007CC6701CC67C00001064
:100C20003030FC303030361C0000000000CCCCCC22
:100C3000CCCC760000000000666666663C180000BA
:100C4000000000C6C6D6D6FE6C0000000000C66CD0
:100C500038386CC60000000000C6C6C6C67E060C4A
:100C600000000000FECC183066FE00000E181818B8
:100C7000701818180E0000181818180018181818EE
:100C80000000701818180E18181870000076DC0094
:100C90000000000000000000000000000000004212
:100CA000427E000000000000000000000000000084
:100CB0000000000000000000000000000000000034
:100CC0000000000000000000000000000000000024
:100CD0000000000000000000000000000000000014
:100CE0000000000000000000000000000000000004
:100CF00000000000000000000000000000000000F4
:100D000000000000000000000000000000000000E3
:100D100000000000000000000000000000000000D3
:100D200000000000000000000000000000000000C3
:100D300000000000000000000000000000000000B3
:100D400000000000000000000000000000000000A3
:100D50000000000000000000000000000000000093
:100D60000000000000000000000000000000000083
:100D70000000000000000000000000000000000073
:100D8000000000000000000000000000000000184B
:100D9000180000000000000000000000000000003B
:100DA0000000000000000000000000000000000043
:100DB0000000000000000000000000000000000033
:100DC0000000000000000000000000000000000023
:100DD0000000000000000000000000000000000013
:100DE0000000000000000000000000000000000003
:100DF00000000000000000000000000000000000F3
:100E000000000000000000000000000000000000E2
:100E10001818007E001818000000000076DC00762C
:100E2000DC0000000000000000000000000070D89E
:100E30003060C8F800000000000000000000000062
:100E400000000000000000000000000000000000A2
:100E500000000000000000000000000000FE000094
:100E6000FE0000FE00000000000000000000000086
:100E7000000030180C060C1830007E000000000046
:100E80000000000000000000000000000000000062
:100E90000000000000000000000000000000000052
:100EA00000000000000000000E1B1B181818181886
:100EB0001818386C6C3800000000000000000000BA
:100EC0000000000000000000000000000000000022
:100ED0000000000000000000000000000000000012
:100EE0000000000000000000000000000000000002
:100EF00000000000000000000000000000000000F2
:100F00000000000000001800000000000018187E1B
:100F100018180000FF00003C4299A5A1A599423C89
:100F200000000C18306030180C007E00000000003B
:100F300000000000000000000000000000000000B1
:100F400000000000000000000000000000000000A1
:100F50000000000000000018181818181818D8D839
:100F6000D870001E3666C6C6FEC6C6C60000FE6243
:100F7000607C66666666FC0000FC6666667C66668B
:100F800066FC0000FE62626060606060F000001E4F
:100F900036666666666666FFC300FE6662687868E7
:100FA0006266FE0000D6D654547C54D6D6D60000D5
:100FB0007CC606063C0606C67C0000C6C6CEDEF62B
:100FC000E6C6C6C60038C6C6CEDEF6E6C6C6C6004B
:100FD00000E6666C6C786C6C66E600001E3666C6D1
:100FE000C6C6C6C6C60000C6EEFEFED6C6C6C6C685
:100FF0000000C6C6C6C6FEC6C6C6C600007CC6C6BB
:10100000C6C6C6C6C67C0000FEC6C6C6C6C6C6C61E
:10101000C60000FC6666667C606060F000003C66AE
:10102000C2C0C0C0C2663C00007E5A18181818180A
:10103000183C0000C6C6C6C6C67E06C67C003C1864
:101040007EDBDBDBDB7E183C0000C6C66C7C387CBC
:101050006CC6C60000CCCCCCCCCCCCCCCCFE060034
:10106000C6C6C6C6C67E0606060000DBDBDBDBDBCB
:10107000DBDBDBFF0000DBDBDBDBDBDBDBDBFF0306
:1010800000F8B0303C363636367C0000C3C3C3F3BC
:10109000DBDBDBDBF30000F060607C66666666FC31
:1010A00000007CC606263E2606C67C0000CEDBDBA2
:1010B000DBFBDBDBDBCE00003F6666663E3E666642
:1010C000E70000000000780C7CCCCC760002063CE7
:1010D00060607C6666663C0000000000FC667C6622
:1010E00066FC00000000007E3230303078000000E6
:1010F00000001E36366666FFC3000000007CC6FE98
:10110000C0C67C0000000000D6D67C54D6D60000B5
:101110000000003C660C06663C0000000000C6CEE5
:10112000D6E6C6C60000003838C6CED6E6C6C6002B
:1011300000000000E66C78786CE600000000001EFD
:1011400036666666660000000000C6EEFED6D6C6AD
:101150000000000000C6C6FEC6C6C60000000000B3
:101160007CC6C6C6C67C0000000000FEC6C6C6C659
:10117000C60000000000DC666666667C6000000059
:10118000007CC6C0C0C67C00000000007E5A181853
:10119000183C0000000000C6C6C6C67E06C6000099
:1011A000003C187EDBDBDB7E1800000000C66C38DC
:1011B000386CC60000000000CCCCCCCCCCFE0600C5
:1011C000000000C6C6C67E06060000000000D6D697
:1011D000D6D6D6FE0000000000D6D6D6D6D6FE0360
:1011E00000000000F8B03E33337E0000000000C66F
:1011F000C6F6DEDEF60000000000F0607C6666FCED
:1012000000000000003C661E06663C000000000076
:10121000CEDBFBDBDBCE00000000007ECC7C6CCCA8
:10122000CE006E616E00696E660000407A10F35A5F
:1012300000A0724E18090010A5D4E80000E8764816
:10124000170000E40B54020000CA9A3B000000E1C2
:10125000F505000080969800000040420F00000055
:10126000A08601000000102700000000E803000035
:1012700000006400000000000A00000000000100FF
:10128000000000002C76D888DC674F0823DFC1DF20
:10129000AE59E1B1B796E5E3E453C63AE651997623
:1012A00096E8E6C28426EB898C9B62ED407C6FFC5D
:1012B000EFBC9C9F40F2BAA56FA5F490055A2AF79F
:1012C0005C936B6CF9676DC11BFCE0E40D47FEF5A8
:1012D00020E6B500D0ED902E030094357705008010
:1012E000841E080000204E0A000000C80C3333336F
:1012F000330F986E12831141EF8D2114893BE6550F
:1013000016CFFEE6DB18D1844B381BF77C1D901DF1
:10131000A4BBE424203284725E228100C9F124EC53
:10132000A1E53D2711241FBECFEFD8E0DEBFCDBF22
:1013300012E0A0E0B1E0E0E3FFE602C005900D920C
:10134000A63FB107D9F714E0A6EFB2E001C01D92A5
:10135000A13BB107E1F70E947D0A0C9496370C94EB
:101360000000806480937C0085E38A95F1F700009B
:1013700080917A00806480937A0080917A0084FF63
:10138000FCCF80917A00806180937A002091780070
:1013900030917900C90108951092F60288E287B968
:1013A00087ED88B98FE99FE00197F1F700C0000051
:1013B00084E480937C0095E39A95F1F70000809196
:1013C0007A00806480937A0080917A0084FFFCCF59
:1013D00080917A00806180937A008091780090916A
:1013E00079008436910508F0089581E08093F60233
:1013F0008FED88B98FE99FE00197F1F700C00000F9
:1014000082E480937C0095E39A95F1F70000809147
:101410007A00806480937A0080917A0084FFFCCF08
:1014200080917A00806180937A0060917800709159
:10143000790080E090E00E940C312FED3FE44DE810
:101440005EE30E949A319B01AC0160E070E080E7AE
:1014500093E40E940E300E94DB30272F862F922FBC
:1014600097FD43C09093F8028093F70284E187B917
:101470008FEE88B98FE99FE00197F1F700C0000077
:1014800083E480937C0095E39A95F1F700008091C6
:101490007A00806480937A0080917A0084FFFCCF88
:1014A00080917A00806180937A00609178007091D9
:1014B000790080E090E00E940C3120E030E040E8CC
:1014C0005EE30E949A3120E030E043E952E40E945A
:1014D0000E300E94DB30272F862F922F97FD09C0F8
:1014E0009093FA028093F9020895909581959F4F09
:1014F000B9CF909581959F4FF3CF5F926F927F9276
:101500008F929F92AF92BF92CF92DF92EF92FF9213
:101510000F931F930F2EF0E06F2EF0E07F2EF0E080
:101520008F2EF0E09F2EF02D58E2F52E07ED14E4FB
:101530004FEDE42E32E4D32E24E1C22E9FEEB92EDD
:1015400083E4A82E552453941092900410928D0495
:1015500060926D0470926E0480926F049092700499
:1015600060926704709268048092690490926A04A1
:1015700010927A0410927B0410927C0410927D04E5
:1015800010928104109282041092830410928404B9
:101590000E94EB0B0E940F0D0E94EE2B80918D0498
:1015A0008823C9F51092F602F7B808B98FE99FE0D1
:1015B0000197F1F700C0000010937C0095E39A9525
:1015C000F1F7000080917A00806480937A00809126
:1015D0007A0084FFFCCF80917A00806180937A004A
:1015E000809178009091790084369105E0F08091A7
:1015F000F602813009F495C080910504813071F6BE
:10160000E0910304F091040409951092050480917F
:101610008D04882339F2F8940E9414220E9420221B
:101620000E94E00B91CF5092F602E8B8AFE9BFE01C
:101630001197F1F700C00000D0927C00B5E3BA9595
:10164000F1F7000080917A00806480937A008091A5
:101650007A0084FFFCCF80917A00806180937A00C9
:10166000609178007091790080E090E00E940C31E8
:101670002FED3FE44DE85EE30E949A319B01AC01FF
:1016800060E070E080E793E40E940E300E94DB305F
:10169000272F862F922F97FD7EC09093F80280937C
:1016A000F702C7B8B8B88FE99FE00197F1F700C01B
:1016B0000000A0927C0095E39A95F1F700008091DC
:1016C0007A00806480937A0080917A0084FFFCCF56
:1016D00080917A00806180937A00609178007091A7
:1016E000790080E090E00E940C3120E030E040E89A
:1016F0005EE30E949A3120E030E043E952E40E9428
:101700000E300E94DB30272F862F922F97FD47C087
:101710009093FA028093F9028091F602813009F0E9
:101720006BCF70916004772309F438CF2091F702D2
:101730003091F8024091F9025091FA02E09161046F
:10174000F091620460E005C06F5F3696671708F09D
:1017500025CF808190E082179307B4F7828190E0D3
:10176000281739078CF7818190E08417950764F773
:10177000838190E0481759073CF70480F581E02DFC
:1017800009958FEF93ECA9E081509040A040E1F7DC
:1017900000C0000003CF909581959F4F7ECF90951C
:1017A00081959F4FB5CF1092C0001092C10086E086
:1017B0008093C2001092C5008FE58093C400089505
:1017C0001092C0001092C1001092C2001092C50089
:1017D0001092C4000895F8941BB81AB85E98569AEF
:1017E0002B9A239A5F98579A2D98259A2C9A5D9A4E
:1017F000559A2A9A229A81E58CBD81E08DBD14BC50
:1018000093E095BD96E096BD17BC10928000809342
:10181000810087EE8093850086E980938400109292
:101820008700109286001092890010928800109212
:101830008B0010928A0080E880BF10927B0080E4C9
:1018400080937C0087E880937A001092BC007894A3
:10185000089570E0382F20E0622B732B5F9884E7A7
:101860008EBD0DB407FEFDCF1EBC0DB407FEFDCF2F
:1018700081E28EBD0DB407FEFDCF5F9A5F9886E7CB
:101880008EBD0DB407FEFDCF7EBD0DB407FEFDCFAE
:101890006EBD0DB407FEFDCF5F9A08952A9A089594
:1018A0002A9808955E9A08955E9808955F9A08951B
:1018B0005F9808955D9A08955D9808958EBD0DB462
:1018C00007FEFDCF08955F9894E79EBD0DB407FE17
:1018D000FDCF1EBC0DB407FEFDCF8EBD0DB407FEBF
:1018E000FDCF5F9A08955F9826E72EBD0DB407FEE1
:1018F000FDCF9EBD0DB407FEFDCF8EBD0DB407FE1E
:10190000FDCF5F9A08955F9894E79EBD0DB407FEE2
:10191000FDCF1EBC0DB407FEFDCF8EBD0DB407FE7E
:10192000FDCF5F9A5F9886E78EBD0DB407FEFDCFB1
:101930007EBD0DB407FEFDCF6EBD0DB407FEFDCF1D
:101940005F9A08955F9884E78EBD0DB407FEFDCFC2
:101950001EBC0DB407FEFDCF82E28EBD0DB407FEA6
:10196000FDCF5F9A5F9886E78EBD0DB407FEFDCF71
:1019700008959EBD0DB407FEFDCF8EBD0DB407FECC
:10198000FDCF08955F9A089570E0F22FE0E0E62B16
:10199000F72B5F9894E79EBD0DB407FEFDCF1EBCEC
:1019A0000DB407FEFDCF96E19EBD0DB407FEFDCF41
:1019B0005F9A5F9896E79EBD0DB407FEFDCFFEBD12
:1019C0000DB407FEFDCFEEBD0DB407FEFDCF5F9A4F
:1019D00090E0342F20E0282B392B5F9844E74EBD50
:1019E0000DB407FEFDCF1EBC0DB407FEFDCF47E1D1
:1019F0004EBD0DB407FEFDCF5F9A5F9846E74EBD22
:101A00000DB407FEFDCF3EBD0DB407FEFDCF2EBDCC
:101A10000DB407FEFDCF5F9A0E94290C08955F9ACE
:101A20005D9A5E988FEF90E7A2E081509040A040D1
:101A3000E1F700C000005E9A8FEF90E7A2E08150CE
:101A40009040A040E1F700C000005F9884E78EBDA1
:101A50000DB407FEFDCF1EBC0DB407FEFDCF87E021
:101A60008EBD0DB407FEFDCF5F9A5F9886E78EBDF1
:101A70000DB407FEFDCF1EBC0DB407FEFDCF1EBC8E
:101A80000DB407FEFDCF5F9AAFE3BCE91197F1F704
:101A900000C000005F9884E78EBD0DB407FEFDCF47
:101AA0001EBC0DB407FEFDCF82E08EBD0DB407FE57
:101AB000FDCF5F9A5F9886E78EBD0DB407FEFDCF20
:101AC00084E08EBD0DB407FEFDCF1EBC0DB407FE35
:101AD000FDCF5F9A5F9884E78EBD0DB407FEFDCF02
:101AE0001EBC0DB407FEFDCF8CE08EBD0DB407FE0D
:101AF000FDCF5F9A5F9886E78EBD0DB407FEFDCFE0
:101B00001EBC0DB407FEFDCF81E08EBD0DB407FEF7
:101B1000FDCF5F9A5F9884E78EBD0DB407FEFDCFC1
:101B20001EBC0DB407FEFDCF8DE08EBD0DB407FECB
:101B3000FDCF5F9A5F9886E78EBD0DB407FEFDCF9F
:101B40001EBC0DB407FEFDCF86E08EBD0DB407FEB2
:101B5000FDCF5F9A5F9884E78EBD0DB407FEFDCF81
:101B60001EBC0DB407FEFDCF84E08EBD0DB407FE94
:101B7000FDCF5F9A5F9886E78EBD0DB407FEFDCF5F
:101B80001EBC0DB407FEFDCF1EBC0DB407FEFDCF7D
:101B90005F9A5F9884E78EBD0DB407FEFDCF1EBC33
:101BA0000DB407FEFDCF8DE08EBD0DB407FEFDCF59
:101BB0005F9A5F9886E78EBD0DB407FEFDCF86E085
:101BC0008EBD0DB407FEFDCF86E18EBD0DB407FEC0
:101BD000FDCF5F9A5F9884E78EBD0DB407FEFDCF01
:101BE0001EBC0DB407FEFDCF8EE08EBD0DB407FE0A
:101BF000FDCF5F9A5F9886E78EBD0DB407FEFDCFDF
:101C00001EBC0DB407FEFDCF80E18EBD0DB407FEF6
:101C1000FDCF5F9A5F9884E78EBD0DB407FEFDCFC0
:101C20001EBC0DB407FEFDCF8EE08EBD0DB407FEC9
:101C3000FDCF5F9A5F9886E78EBD0DB407FEFDCF9E
:101C400080E18EBD0DB407FEFDCF80E18EBD0DB4E9
:101C500007FEFDCF5F9A5F9884E78EBD0DB407FE47
:101C6000FDCF1EBC0DB407FEFDCF83E08EBD0DB4CD
:101C700007FEFDCF5F9A5F9886E78EBD0DB407FE25
:101C8000FDCF1EBC0DB407FEFDCF1EBC0DB407FE7C
:101C9000FDCF5F9A5F9884E78EBD0DB407FEFDCF40
:101CA0001EBC0DB407FEFDCF83E08EBD0DB407FE54
:101CB000FDCF5F9A5F9886E78EBD0DB407FEFDCF1E
:101CC0001EBC0DB407FEFDCF1EBC0DB407FEFDCF3C
:101CD0005F9A5F9884E78EBD0DB407FEFDCF1EBCF2
:101CE0000DB407FEFDCF83E08EBD0DB407FEFDCF22
:101CF0005F9A5F9886E78EBD0DB407FEFDCF1EBCD0
:101D00000DB407FEFDCF8CE08EBD0DB407FEFDCFF8
:101D10005F9A8FEF93EFA1E081509040A040E1F7F0
:101D200000C000005F9884E78EBD0DB407FEFDCFB4
:101D30001EBC0DB407FEFDCF8EE08EBD0DB407FEB8
:101D4000FDCF5F9A5F9886E78EBD0DB407FEFDCF8D
:101D50008DE28EBD0DB407FEFDCF8FE18EBD0DB4BB
:101D600007FEFDCF5F9A8FEF93EFA1E08150904087
:101D7000A040E1F700C000005F9884E78EBD0DB47D
:101D800007FEFDCF1EBC0DB407FEFDCF8DE08EBD5E
:101D90000DB407FEFDCF5F9A5F9886E78EBD0DB448
:101DA00007FEFDCF86E08EBD0DB407FEFDCF86E1B8
:101DB0008EBD0DB407FEFDCF5F9A8FEF91EEA4E0CC
:101DC00081509040A040E1F700C000005F9884E798
:101DD0008EBD0DB407FEFDCF1EBC0DB407FEFDCFBA
:101DE00085E08EBD0DB407FEFDCF5F9A5F9886E754
:101DF0008EBD0DB407FEFDCF1EBC0DB407FEFDCF9A
:101E000088E38EBD0DB407FEFDCF5F9A5F9884E72F
:101E10008EBD0DB407FEFDCF1EBC0DB407FEFDCF79
:101E200086E18EBD0DB407FEFDCF5F9A5F9886E711
:101E30008EBD0DB407FEFDCF83E88EBD0DB407FE49
:101E4000FDCF1EBC0DB407FEFDCF5F9A5F9884E7FF
:101E50008EBD0DB407FEFDCF1EBC0DB407FEFDCF39
:101E600087E18EBD0DB407FEFDCF5F9A5F9886E7D0
:101E70008EBD0DB407FEFDCF8FEA8EBD0DB407FEFB
:101E8000FDCF1EBC0DB407FEFDCF5F9A80E090E051
:101E900060E070E00E94290C5F9884E78EBD0DB46D
:101EA00007FEFDCF1EBC0DB407FEFDCF87E08EBD43
:101EB0000DB407FEFDCF5F9A5F9886E78EBD0DB427
:101EC00007FEFDCF1EBC0DB407FEFDCF85E08EBD25
:101ED0000DB407FEFDCF5F9A5F9884E78EBD0DB409
:101EE00007FEFDCF1EBC0DB407FEFDCF87E08EBD03
:101EF0000DB407FEFDCF5F9A5F9886E78EBD0DB4E7
:101F000007FEFDCF1EBC0DB407FEFDCF85E28EBDE2
:101F10000DB407FEFDCF5F9A5F9884E78EBD0DB4C8
:101F200007FEFDCF1EBC0DB407FEFDCF87E08EBDC2
:101F30000DB407FEFDCF5F9A5F9886E78EBD0DB4A6
:101F400007FEFDCF1EBC0DB407FEFDCF87E28EBDA0
:101F50000DB407FEFDCF5F9A5F9884E78EBD0DB488
:101F600007FEFDCF1EBC0DB407FEFDCF87E08EBD82
:101F70000DB407FEFDCF5F9A5F9886E78EBD0DB466
:101F800007FEFDCF1EBC0DB407FEFDCF87E38EBD5F
:101F90000DB407FEFDCF5F9AAFE3BCE91197F1F7EF
:101FA00000C0000008950F931F93182F092F5F980A
:101FB00084E78EBD0DB407FEFDCF1EBC0DB407FE39
:101FC000FDCF86E18EBD0DB407FEFDCF5F9A5F9811
:101FD00086E78EBD0DB407FEFDCF83E88EBD0DB440
:101FE00007FEFDCF1EBC0DB407FEFDCF5F9A5F98C4
:101FF00084E78EBD0DB407FEFDCF1EBC0DB407FEF9
:10200000FDCF87E18EBD0DB407FEFDCF5F9A5F98CF
:1020100086E78EBD0DB407FEFDCF8FEA8EBD0DB4F1
:1020200007FEFDCF1EBC0DB407FEFDCF5F9A80E01A
:1020300090E060E070E00E94290C5F9884E78EBD1C
:102040000DB407FEFDCF1EBC0DB407FEFDCF82E22E
:102050008EBD0DB407FEFDCF5F9A5F9886E78EBDFB
:102060000DB407FEFDCF20EC3AE50EBD0DB407FE22
:10207000FDCF1EBD0DB407FEFDCF21503040A9F7A6
:102080005F9A1F910F910895803B10F4643808F017
:10209000089570E0382F20E0622B732B5F9884E75F
:1020A0008EBD0DB407FEFDCF1EBC0DB407FEFDCFE7
:1020B00081E28EBD0DB407FEFDCF5F9A5F9886E783
:1020C0008EBD0DB407FEFDCF7EBD0DB407FEFDCF66
:1020D0006EBD0DB407FEFDCF5F9A5F9884E78EBD9D
:1020E0000DB407FEFDCF1EBC0DB407FEFDCF82E28E
:1020F0008EBD0DB407FEFDCF5F9A5F9886E78EBD5B
:102100000DB407FEFDCF5EBD0DB407FEFDCF4EBD85
:102110000DB407FEFDCF5F9A0895AF92BF92CF92A4
:10212000DF92EF92FF920F931F93CF93DF934817A5
:1021300018F4982F842F492F261718F4962F622F02
:10214000292F403B10F4243858F0DF91CF911F9194
:102150000F91FF90EF90DF90CF90BF90AF900895D8
:10216000C22EDD24C62FD0E03C2D22272C2B3D2B68
:102170005F9894E79EBD0DB407FEFDCF1EBC0DB465
:1021800007FEFDCF96E19EBD0DB407FEFDCF5F9A21
:102190005F9896E79EBD0DB407FEFDCF3EBD0DB422
:1021A00007FEFDCF2EBD0DB407FEFDCF5F9AA42E16
:1021B000BB24E82EFF249A2D88278E299F295F981B
:1021C00024E72EBD0DB407FEFDCF1EBC0DB407FEE7
:1021D000FDCF27E12EBD0DB407FEFDCF5F9A5F98BE
:1021E00026E72EBD0DB407FEFDCF9EBD0DB407FE44
:1021F000FDCF8EBD0DB407FEFDCF5F9AC701BE01B6
:102200000E94290C5F9884E78EBD0DB407FEFDCFB8
:102210001EBC0DB407FEFDCF82E28EBD0DB407FEDD
:10222000FDCF5F9A5F9886E78EBD0DB407FEFDCFA8
:102230000894C11CD11CCC1ADD0A0894A11CB11C45
:10224000AE18BF08CA9CC001CB9C900DDA9C900DC3
:102250001124009751F01EBD0DB407FEFDCF0EBD39
:102260000DB407FEFDCF0197B1F75F9A6ECF2F92A5
:102270003F924F925F926F927F928F929F92AF9216
:10228000BF92CF92DF92EF92FF920F931F93DF9353
:10229000CF93CDB7DEB728970FB6F894DEBF0FBE49
:1022A000CDBF382F562F4801841709F44FC162174C
:1022B00009F44CC1682E7724E42EFF24E618F708B1
:1022C000462E5524A22EBB24A418B508F7FC8BC1BA
:1022D000CC24C394B7FC8FC1DD24D3948701000FB5
:1022E000111FC501880F991F98878F835F9884E716
:1022F0008EBD0DB407FEFDCF1EBC0DB407FEFDCF95
:1023000086E18EBD0DB407FEFDCF5F9A5F9886E72C
:102310008EBD0DB407FEFDCF83E88EBD0DB407FE64
:10232000FDCF1EBC0DB407FEFDCF5F9A5F9884E71A
:102330008EBD0DB407FEFDCF1EBC0DB407FEFDCF54
:1023400087E18EBD0DB407FEFDCF5F9A5F9886E7EB
:102350008EBD0DB407FEFDCF8FEA8EBD0DB407FE16
:10236000FDCF1EBC0DB407FEFDCF5F9A80E090E06C
:1023700060E070E02E833B834D835C830E94290CD8
:102380003B812E814D815C81303B18F4543808F438
:10239000E3C0AE14BF040CF07BC08F8198858E190A
:1023A0009F096C2D630FE4E7A1E276E7F2E20AC031
:1023B0006C0D262F2C19421709F451C02F81388536
:1023C000820F931F97FD03C05D0D801B910B603B37
:1023D00078F7543868F7252F30E0362E222422294A
:1023E00033295F98EEBD0DB407FEFDCF1EBC0DB4C2
:1023F00007FEFDCFAEBD0DB407FEFDCF5F9A5F981F
:102400007EBD0DB407FEFDCF3EBD0DB407FEFDCF72
:102410002EBD0DB407FEFDCF5F9A5F98EEBD0DB4E3
:1024200007FEFDCF1EBC0DB407FEFDCFFEBD0DB4F3
:1024300007FEFDCF5F9A5F987EBD0DB407FEFDCF0E
:102440009EBC0DB407FEFDCF8EBC0DB407FEFDCFC4
:102450005F9A6C0D262F2C19421709F0AFCF2896E2
:102460000FB6F894DEBF0FBECDBFCF91DF911F91A5
:102470000F91FF90EF90DF90CF90BF90AF909F9023
:102480008F907F906F905F904F903F902F90089526
:10249000C8018A199B096D2D650FE4E741E2E42E1E
:1024A00076E7F2E207C06D0D462F4D192417B9F2F9
:1024B000800F911F97FD05C03C0D4F815885841BEF
:1024C000950B303B80F7643870F73A831982462FBA
:1024D00050E0A981BA814A2B5B2B5F98EEBD0DB409
:1024E00007FEFDCF1EBC0DB407FEFDCFEEBC0DB444
:1024F00007FEFDCF5F9A5F987EBD0DB407FEFDCF4E
:102500005EBD0DB407FEFDCF4EBD0DB407FEFDCF81
:102510005F9A5F98EEBD0DB407FEFDCF1EBC0DB4F3
:1025200007FEFDCFFEBD0DB407FEFDCF5F9A5F989D
:102530007EBD0DB407FEFDCF9EBC0DB407FEFDCFE2
:102540008EBC0DB407FEFDCF5F9AADCF832F652FF4
:1025500084010E948D1083CF762C66246428752810
:102560005F9884E78EBD0DB407FEFDCF1EBC0DB491
:1025700007FEFDCF81E28EBD0DB407FEFDCF5F9A51
:102580005F9886E78EBD0DB407FEFDCF7EBC0DB40F
:1025900007FEFDCF6EBC0DB407FEFDCF5F9A5F98BE
:1025A00084E78EBD0DB407FEFDCF1EBC0DB407FE43
:1025B000FDCF82E28EBD0DB407FEFDCF5F9A5F981E
:1025C00086E78EBD0DB407FEFDCF9EBC0DB407FEA1
:1025D000FDCF8EBC0DB407FEFDCF5F9AAE14BF04D5
:1025E0000CF056CFDACEF094E194F108F394CC24B9
:1025F000CA94B7FE71CEB094A194B108B394DD240F
:10260000DA946CCECF92DF92EF92FF920F931F93EA
:10261000CF93DF93D82EF62EE42EC22E4D2D0E949E
:102620008D108D2D6C2D4E2D2C2D0E948D108E2DEC
:102630006F2D4E2D2C2D0E948D108D2D6F2D4E2D1A
:102640002F2D0E948D10DF91CF911F910F91FF9040
:10265000EF90DF90CF9008952F923F924F925F922C
:102660006F927F928F929F92AF92BF92CF92DF92A2
:10267000EF92FF920F931F93DF93CF93CDB7DEB707
:102680002C970FB6F894DEBF0FBECDBFF82EE62E06
:10269000B22EC32E042F10E022273327201B310B2C
:1026A0003C872B875F9884E78EBD0DB407FEFDCF76
:1026B0001EBC0DB407FEFDCF86E18EBD0DB407FE36
:1026C000FDCF5F9A5F9886E78EBD0DB407FEFDCF04
:1026D00083E88EBD0DB407FEFDCF1EBC0DB407FE12
:1026E000FDCF5F9A5F9884E78EBD0DB407FEFDCFE6
:1026F0001EBC0DB407FEFDCF87E18EBD0DB407FEF5
:10270000FDCF5F9A5F9886E78EBD8B859C850DB463
:1027100007FEFDCF9C878B878FEA8EBD8B859C85BE
:102720000DB407FEFDCF9C878B871EBC8B859C85D7
:102730000DB407FEFDCF9C878B875F9A80E090E009
:1027400060E070E00E94290CFE2DEE2D5F2D4F2DD4
:1027500080E090E074E7A1E26A2E66E74BC0AF2C00
:10276000AD182A2D203B18F4F43808F465C3272D42
:10277000203B18F4E43808F47BC22A2D203B18F4DF
:10278000E43808F4E7C2AD2CAE0C503B20F42A2DFF
:10279000243808F4ABC0403B20F42A2D243808F438
:1027A00017C1AE2DAD19DA2E503B18F4A43808F439
:1027B0007FC1403B20F42D2D243808F4E9C1AB85BE
:1027C000BC85A80FB91F0196A80FB91FBC87AB879E
:1027D000B7FD08C001501040A01BB10BA01BB10BEE
:1027E000BC87AB8741505F5FE150FF5F0817190757
:1027F0000CF494C3D02E702E7F0C372D303B08F094
:10280000AECFF43808F0ABCF7A8219822F2F30E0A8
:10281000A981BA812A2B3B2B5F987EBDAB85BC85F5
:102820000DB407FEFDCFBC87AB871EBCAB85BC8556
:102830000DB407FEFDCFBC87AB876EBCAB85BC85F6
:102840000DB407FEFDCFBC87AB875F9A5F986EBD66
:10285000AB85BC850DB407FEFDCFBC87AB873EBD05
:10286000AB85BC850DB407FEFDCFBC87AB872EBD05
:102870002B853C850DB407FEFDCF3C872B875F9AE7
:102880005F987EBD2B853C850DB407FEFDCF3C8750
:102890002B871EBC2B853C850DB407FEFDCF3C87E6
:1028A0002B87B2E2BEBD2B853C850DB407FEFDCF64
:1028B0003C872B875F9A5F986EBD2B853C850DB456
:1028C00007FEFDCF3C872B87CEBC2B853C850DB406
:1028D00007FEFDCF3C872B87BEBC2B853C850DB406
:1028E00007FEFDCF3C872B875F9A39CF2A2D30E03A
:1028F0005A871986A985BA852A2B3B2B5F987EBDFE
:10290000AB85BC850DB407FEFDCFBC87AB871EBC75
:10291000AB85BC850DB407FEFDCFBC87AB876EBC15
:10292000AB85BC850DB407FEFDCFBC87AB875F9A36
:102930005F986EBDAB85BC850DB407FEFDCFBC872F
:10294000AB873EBDAB85BC850DB407FEFDCFBC8714
:10295000AB872EBD2B853C850DB407FEFDCF3C8794
:102960002B875F9A5F987EBD2B853C850DB407FE53
:10297000FDCF3C872B871EBC2B853C850DB407FE05
:10298000FDCF3C872B87B2E2BEBD2B853C850DB4C5
:1029900007FEFDCF3C872B875F9A5F986EBD2B8526
:1029A0003C850DB407FEFDCF3C872B87CEBC2B8525
:1029B0003C850DB407FEFDCF3C872B87BEBC2B8525
:1029C0003C850DB407FEFDCF3C872B875F9AE3CE95
:1029D0002A2D30E0342E2224222933295F987EBD0F
:1029E000AB85BC850DB407FEFDCFBC87AB871EBC95
:1029F000AB85BC850DB407FEFDCFBC87AB876EBC35
:102A0000AB85BC850DB407FEFDCFBC87AB875F9A55
:102A10005F986EBDAB85BC850DB407FEFDCFBC874E
:102A2000AB873EBDAB85BC850DB407FEFDCFBC8733
:102A3000AB872EBD2B853C850DB407FEFDCF3C87B3
:102A40002B875F9A5F987EBD2B853C850DB407FE72
:102A5000FDCF3C872B871EBC2B853C850DB407FE24
:102A6000FDCF3C872B8732E23EBD2B853C850DB4E4
:102A700007FEFDCF3C872B875F9A5F986EBD2B8545
:102A80003C850DB407FEFDCF3C872B87CEBC2B8544
:102A90003C850DB407FEFDCF3C872B87BEBC2B8544
:102AA0003C850DB407FEFDCF3C872B875F9A79CE1E
:102AB0002A2F30E0552E4424242935295F987EBDE5
:102AC000AB85BC850DB407FEFDCFBC87AB871EBCB4
:102AD000AB85BC850DB407FEFDCFBC87AB876EBC54
:102AE000AB85BC850DB407FEFDCFBC87AB875F9A75
:102AF0005F986EBDAB85BC850DB407FEFDCFBC876E
:102B0000AB873EBDAB85BC850DB407FEFDCFBC8752
:102B1000AB872EBD2B853C850DB407FEFDCF3C87D2
:102B20002B875F9A5F987EBD2B853C850DB407FE91
:102B3000FDCF3C872B871EBC2B853C850DB407FE43
:102B4000FDCF3C872B87B2E2BEBD2B853C850DB403
:102B500007FEFDCF3C872B875F9A5F986EBD2B8564
:102B60003C850DB407FEFDCF3C872B87CEBC2B8563
:102B70003C850DB407FEFDCF3C872B87BEBC2B8563
:102B80003C850DB407FEFDCF3C872B875F9A11CEA5
:102B90002D2D30E0942E8824282939295F987EBD78
:102BA000AB85BC850DB407FEFDCFBC87AB871EBCD3
:102BB000AB85BC850DB407FEFDCFBC87AB876EBC73
:102BC000AB85BC850DB407FEFDCFBC87AB875F9A94
:102BD0005F986EBDAB85BC850DB407FEFDCFBC878D
:102BE000AB873EBDAB85BC850DB407FEFDCFBC8772
:102BF000AB872EBD2B853C850DB407FEFDCF3C87F2
:102C00002B875F9A5F987EBD2B853C850DB407FEB0
:102C1000FDCF3C872B871EBC2B853C850DB407FE62
:102C2000FDCF3C872B8732E23EBD2B853C850DB422
:102C300007FEFDCF3C872B875F9A5F986EBD2B8583
:102C40003C850DB407FEFDCF3C872B87CEBC2B8582
:102C50003C850DB407FEFDCF3C872B87BEBC2B8582
:102C60003C850DB407FEFDCF3C872B875F9AA7CD2F
:102C70007E821D822E2F30E0AD81BE812A2B3B2B20
:102C80005F987EBDAB85BC850DB407FEFDCFBC87CC
:102C9000AB871EBCAB85BC850DB407FEFDCFBC87E2
:102CA000AB876EBCAB85BC850DB407FEFDCFBC8782
:102CB000AB875F9A5F986EBDAB85BC850DB407FE90
:102CC000FDCFBC87AB873EBDAB85BC850DB407FE91
:102CD000FDCFBC87AB872EBD2B853C850DB407FE91
:102CE000FDCF3C872B875F9A5F987EBD2B853C8507
:102CF0000DB407FEFDCF3C872B871EBC2B853C8582
:102D00000DB407FEFDCF3C872B87B2E2BEBD2B85FD
:102D10003C850DB407FEFDCF3C872B875F9A5F98FB
:102D20006EBD2B853C850DB407FEFDCF3C872B8700
:102D3000CEBC2B853C850DB407FEFDCF3C872B8791
:102D4000BEBC2B853C850DB407FEFDCF3C872B8791
:102D50005F9A13CDA8861F822E2F30E0AF81B885F1
:102D60002A2B3B2B5F987EBDAB85BC850DB407FE3F
:102D7000FDCFBC87AB871EBCAB85BC850DB407FE01
:102D8000FDCFBC87AB876EBCAB85BC850DB407FEA1
:102D9000FDCFBC87AB875F9A5F986EBDAB85BC8566
:102DA0000DB407FEFDCFBC87AB873EBDAB85BC85B0
:102DB0000DB407FEFDCFBC87AB872EBD2B853C85B0
:102DC0000DB407FEFDCF3C872B875F9A5F987EBDD1
:102DD0002B853C850DB407FEFDCF3C872B871EBCA1
:102DE0002B853C850DB407FEFDCF3C872B87B2E2D7
:102DF000BEBD2B853C850DB407FEFDCF3C872B87E0
:102E00005F9A5F986EBD2B853C850DB407FEFDCFA4
:102E10003C872B87CEBC2B853C850DB407FEFDCFB0
:102E20003C872B87BEBC2B853C850DB407FEFDCFB0
:102E30003C872B875F9AA7CCAC821B822F2F30E078
:102E4000AB81BC812A2B3B2B5F987EBDAB85BC85BB
:102E50000DB407FEFDCFBC87AB871EBCAB85BC8520
:102E60000DB407FEFDCFBC87AB876EBCAB85BC85C0
:102E70000DB407FEFDCFBC87AB875F9A5F986EBD30
:102E8000AB85BC850DB407FEFDCFBC87AB873EBDCF
:102E9000AB85BC850DB407FEFDCFBC87AB872EBDCF
:102EA0002B853C850DB407FEFDCF3C872B875F9AB1
:102EB0005F987EBD2B853C850DB407FEFDCF3C871A
:102EC0002B871EBC2B853C850DB407FEFDCF3C87B0
:102ED0002B87B2E2BEBD2B853C850DB407FEFDCF2E
:102EE0003C872B875F9A5F986EBD2B853C850DB420
:102EF00007FEFDCF3C872B87CEBC2B853C850DB4D0
:102F000007FEFDCF3C872B87BEBC2B853C850DB4CF
:102F100007FEFDCF3C872B875F9A29CC2C960FB6F6
:102F2000F894DEBF0FBECDBFCF91DF911F910F91FF
:102F3000FF90EF90DF90CF90BF90AF909F908F90D9
:102F40007F906F905F904F903F902F9008954F9299
:102F50005F926F927F928F929F92AF92BF92CF9229
:102F6000DF92EF92FF920F931F93CF93DF93E82EA0
:102F7000F62E5901642E7724CC27DD27C619D709F0
:102F80005F9884E78EBD0DB407FEFDCF1EBC0DB467
:102F900007FEFDCF86E18EBD0DB407FEFDCF5F9A23
:102FA0005F9886E78EBD0DB407FEFDCF83E88EBD2A
:102FB0000DB407FEFDCF1EBC0DB407FEFDCF5F9A1A
:102FC0005F9884E78EBD0DB407FEFDCF1EBC0DB427
:102FD00007FEFDCF87E18EBD0DB407FEFDCF5F9AE2
:102FE0005F9886E78EBD0DB407FEFDCF8FEA8EBDDC
:102FF0000DB407FEFDCF1EBC0DB407FEFDCF5F9ADA
:1030000080E090E060E070E00E94290CCC24DD2498
:103010005E2C5618462C4E0C9C2C2C2D2F0D852DDD
:10302000622F442D85010E9437112F2D2C19852DDB
:10303000622F442D0E9437115E2C5C189E0C262DA9
:103040002F0D852D622F492D0E9437112F2D261906
:10305000852D622F492D0E943711CC0DDD1D08945E
:10306000C11CD11CCC0DDD1DD7FD07C00894610823
:103070007108C619D709C619D7096C147D0444F61E
:10308000DF91CF911F910F91FF90EF90DF90CF9044
:10309000BF90AF909F908F907F906F905F904F9078
:1030A0000895CF92DF92EF92FF920F931F93DF93D9
:1030B000CF9300D0CDB7DEB7922F3BE0439F6001A6
:1030C000112442E257E0C40ED51E2230A8F0522F40
:1030D000550F550F550F580F513B08F43AC051EB9F
:1030E000852F0F900F90CF91DF911F910F91FF903F
:1030F000EF90DF90CF900895582F585F513B78F7AD
:10310000482F495F262F265F5A830E94C40C0E94D5
:10311000A20C20E030E05A81F601E20FF31FE491A7
:1031200088E090E040E8642F6E2309F456C01EBD8D
:103130000DB407FEFDCF0EBD0DB407FEFDCF4695C5
:10314000019789F72F5F3F4F2B30310529F75F9AA1
:10315000C7CF452F4150262F2150939F302D11244A
:10316000230F5A8399830E94C40C0E94A20C20E072
:1031700030E099815A81F601E20FF31FE491F92FB3
:1031800068E070E040E8842F8E23B9F0892F1EBDDF
:103190000DB407FEFDCF0EBD0DB407FEFDCF81506F
:1031A000B1F746956150704071F7F15049F72F5FC4
:1031B0003F4F2B303105F9F6CACF892FFEBC0DB435
:1031C00007FEFDCFEEBC0DB407FEFDCF8150B1F779
:1031D000469561507040B9F6E8CFFEBC0DB407FECD
:1031E000FDCFEEBC0DB407FEFDCFA9CF8F929F920D
:1031F000AF92BF92CF92DF92EF92FF920F931F9305
:10320000CF93DF93862E922E68015701E42EE701BB
:103210007E01F52EE70108C0682D292D8601750174
:103220000E945118813B18F449914423A9F7DF917A
:10323000CF911F910F91FF90EF90DF90CF90BF90B3
:10324000AF909F908F9008958F929F92AF92BF9270
:10325000CF92DF92EF92FF920F931F93CF93DF9362
:10326000862EFA01922E580167014491442379F089
:10327000EF0104C0FE014491442349F02196682DDA
:10328000292D850176010E945118813B98F3DF9129
:10329000CF911F910F91FF90EF90DF90CF90BF9053
:1032A000AF909F908F9008952F923F924F925F9290
:1032B0006F927F928F929F92AF92BF92CF92DF9246
:1032C000EF92FF920F931F93DF93CF9300D000D024
:1032D0000F92CDB7DEB7882ED62E5D834C83622E3B
:1032E00028015701282E2A94822F880F782E770CD8
:1032F000770C780E720E972C960E80E0422D292DB9
:1033000087010E948D1080EB90E08819910997FD4C
:10331000B4C09595879595958795959587958A835A
:103320003C80ED80E982C82CEC81FD81908199235D
:1033300009F446C09F012F5F3F4F3D832C839A3095
:1033400009F464C0903209F45BC0903268F38C2DAC
:103350006D2D492F262D820175019B830E945118E6
:103360009B81813B08F466C0903209F44FC08C8188
:1033700083193A81381708F063C08C2D6D2D4FEA00
:10338000292D85019B830E948D1082E0D82ED90CB7
:103390009D2C970C80E06D2D422D292D0E948D10C3
:1033A000882D6D2D9B81492F262D820175010E944C
:1033B0005118C82EEC81FD819081992309F0BACF74
:1033C0008C2D6D2D4FEA292D85010E948D108C2D9D
:1033D0000F900F900F900F900F90CF91DF911F9152
:1033E0000F91FF90EF90DF90CF90BF90AF909F90A4
:1033F0008F907F906F905F904F903F902F900895A7
:10340000C814D1F03C80FD81F983A1CF8C2D6D2DA6
:103410004FEA292D85010E948D1092E0D92ED90CFA
:103420009D2C970C80E06D2D422D292D0E948D1032
:10343000C82C7ACFC82E78CF3C808D81898374CFF9
:10344000880F880F880FC81A8C2D6D2D4FEA292DF3
:1034500085010E948D10B2E0DB2ED90C9D2C970CBB
:1034600080E06D2D422D292D0E948D108981432DE4
:10347000582F5D834C83C82C57CF07964ACF2F9285
:103480003F924F925F926F927F928F929F92AF92F4
:10349000BF92CF92DF92EF92FF920F931F93DF9331
:1034A000CF9300D000D000D0CDB7DEB7882ED62E77
:1034B0005A834983622E28015701282E2A94822F8D
:1034C000880F782E770C770C780E720E972C960E4C
:1034D00080E0422D292D87010E948D1080EB90E025
:1034E0008819910997FDC2C09595879595958795FF
:1034F000959587958B83E981FA819491992309F4B5
:10350000CBC03196FE83ED833980FA81F983C82CD4
:103510000DC09032A8F4ED81FE819F012F5F3F4FD7
:103520003E832D839491992309F45CC09A30E1F194
:10353000903279F7C81409F478C03D803E81398310
:103540008C2D6D2D492F262D820175019C830E94A3
:1035500051189C81813B08F466C0903209F488C000
:103560008D8183193B81381708F063C08C2D6D2D38
:103570004FEA292D85019C830E948D1042E0D42EB4
:10358000D90C9D2C970C80E06D2D422D292D0E9489
:103590008D10882D6D2D9C81492F262D820175015E
:1035A0000E945118C82EB7CF8C2D6D2D4FEA292DB2
:1035B00085010E948D1062E0D62ED90C9D2C970CAF
:1035C00080E06D2D422D292D0E948D10ED81FE8110
:1035D0009F012F5F3F4F3E832D839491C82C9923E9
:1035E00009F0A4CF8C2D6D2D4FEA292D85010E9465
:1035F0008D108C2D26960FB6F894DEBF0FBECDBF72
:10360000CF91DF911F910F91FF90EF90DF90CF90BE
:10361000BF90AF909F908F907F906F905F904F90F2
:103620003F902F900895C82E76CF3D808E8189835C
:1036300072CF880F880F880FC81A8C2D6D2D4FEA16
:10364000292D85010E948D1032E0D32ED90C9D2C9E
:10365000970C80E06D2D422D292D0E948D108981BF
:10366000432D582F5E834D83C82C55CF07963CCFF2
:103670008C2D6D2D4FEA292D85010E948D1052E071
:10368000D52ED90C9D2C970C80E06D2D422D292D27
:103690000E948D10C82C3FCFC82CA4CF1F920F9230
:1036A0000FB60F9211242F938F939F93EF93FF9355
:1036B0008091C0009091C6008C7159F58091FF03F4
:1036C000813009F44DC0813008F441C0823009F4E2
:1036D00054C080910004882329F48091FF03833033
:1036E00009F453C02091FB0280910004281709F4CB
:1036F0005DC08091FE02890F8093FE028091FB02E3
:10370000E82FF0E0E150FD4F90838F5F8093FB0244
:1037100005C083E08093FE031092C1008091FE03F8
:10372000823068F081E080938D04FF91EF919F914A
:103730008F912F910F900FBE0F901F901895809131
:103740006B0490916C048536910560F7EECF9093F1
:10375000FE02892F807C803801F11092FF03DECFBA
:103760008091FE02890F8093FE02913FB1F7809114
:10377000FF038F5F8093FF03D1CF8091FE02890FFB
:103780008093FE02903149F7F2CF9093000480912C
:10379000FE02890F8093FE02C1CF9F7390930004B5
:1037A0008091FF038F5F8093FF03B8CF8091FE026B
:1037B000981731F082E08093FE031092C100AECFE3
:1037C00081E08093FE031092C100A8CF1F920F9258
:1037D0000FB60F9211248F939F93EF93FF939091C5
:1037E000FB02809100049817E8F01092FB021092FF
:1037F00000041092FE031092FF0310926C041092CA
:103800006B0484E690E000000197E9F780E980937B
:10381000C100FF91EF919F918F910F900FBE0F907C
:103820001F9018958091FB02E82FF0E0E150FD4FCA
:1038300090819093C6008F5F8093FB02EACFCF9375
:10384000DF93262F21502F3308F045C0362F3068E4
:103850003093FF023091FF023093FE0230E130934B
:103860000003409100033091FE02340F3093FE02BA
:1038700031EF30930103409101033091FE02340F88
:103880003093FE02E82FF92F30E02C5F3F4F83E0AA
:1038900090E0DF014191EC01C150DD4F4883409140
:1038A000FE025C91450F4093FE020196821793073A
:1038B00081F7E62FF0E08091FE02EE5FFC4F8083FF
:1038C0001092FB026C5F6093000488E28093C10059
:1038D000DF91CF91089530E83093FF023091FF02DD
:1038E0003093FE0230E130930003409100033091A9
:1038F000FE02340F3093FE0231EF3093010340910A
:1039000001033091FE02340F3093FE0260930203F4
:10391000409102033091FE02340F3093FE02662381
:1039200049F1E82FF92F30E02B5F3F4F84E090E022
:10393000DF014191EC01C150DD4F48834091FE020F
:103940005C91450F4093FE0201968217930781F721
:10395000E62FF0E08091FE02ED5FFC4F8083109235
:10396000FB026B5F6093000488E28093C100DF91EB
:10397000CF910895E0E0EDCFEF92FF920F931F9368
:103980001092FE038EE090E09093FD028093FC0283
:103990008FEE9BE790930204809301048EE090E009
:1039A0000E94D30F0091010410910204E090FC02E8
:1039B000F090FD0284E162E340E051E022E00E94E9
:1039C000F6180E94D30B8FEF99E6A8E18150904042
:1039D000A040E1F700C0000089E391E061E00E94AF
:1039E0001F1C8FEF93ECA9E081509040A040E1F7BD
:1039F00000C000008091FE03823009F4D2C1833000
:103A000009F4BBC1813009F480C18091FC0290911E
:103A1000FD020E94D30FE090FC02F090FD0283E2D1
:103A200062E349E051E022E000E010EF0E94F61866
:103A30000E94E00B8FEF97EAA1E681509040A040F2
:103A4000E1F700C000008091FC029091FD020E940D
:103A5000D30F0091010410910204E090FC02F09059
:103A6000FD0284E162E340E051E022E00E94F618AA
:103A70000E94D30B8FEF99E6A8E181509040A040BF
:103A8000E1F700C0000089E391E061E00E941F1CA3
:103A90008FEF93ECA9E081509040A040E1F700C087
:103AA00000008091FE03823009F4A3C1833009F441
:103AB0008CC1813009F441C18091FC029091FD02DA
:103AC0000E94D30FE090FC02F090FD0283E262E3DB
:103AD00049E051E022E000E010EF0E94F6180E9459
:103AE000E00B8FEF97EAA1E681509040A040E1F70C
:103AF00000C000008091FC029091FD020E94D30F53
:103B00000091010410910204E090FC02F090FD028B
:103B100084E162E340E051E022E00E94F6180E9456
:103B2000D30B8FEF99E6A8E181509040A040E1F7D8
:103B300000C0000089E391E061E00E941F1C8FEF4C
:103B400093ECA9E081509040A040E1F700C0000054
:103B50008091FE03823009F460C1833009F48AC188
:103B6000813009F46EC18091FC029091FD020E94A7
:103B7000D30FE090FC02F090FD0283E262E349E0A3
:103B800051E022E000E010EF0E94F6180E94E00BE6
:103B90008FEF97EAA1E681509040A040E1F700C086
:103BA00000008091FC029091FD020E94D30F0091D1
:103BB000010410910204E090FC02F090FD0284E107
:103BC00062E340E051E022E00E94F6180E94D30B2D
:103BD0008FEF99E6A8E181509040A040E1F700C046
:103BE000000089E391E061E00E941F1C8FEF93ECDD
:103BF000A9E081509040A040E1F700C00000809112
:103C0000FE03823009F477C1833009F460C181304A
:103C100009F444C18091FC029091FD020E94D30FEF
:103C2000E090FC02F090FD0283E262E349E051E0A3
:103C300022E000E010EF0E94F6180E94E00B8FEFE8
:103C400097EAA1E681509040A040E1F700C0000053
:103C50008091FC029091FD020E94D30F009101041B
:103C600010910204E090FC02F090FD0284E162E316
:103C700040E051E022E00E94F6180E94D30B8FEF43
:103C800099E6A8E181509040A040E1F700C0000013
:103C900089E391E061E00E941F1C8FEF93ECA9E0A3
:103CA00081509040A040E1F700C000008091FE03E9
:103CB000823009F442C1833009F46CC1813009F4C7
:103CC00050C18091FC029091FD020E94D30FE090C0
:103CD000FC02F090FD0283E262E349E051E022E061
:103CE00000E010EF0E94F6180E94E00B8FEF97EAB9
:103CF000A1E681509040A040E1F700C0000080E0C4
:103D00001F910F91FF90EF9008958091FC02909188
:103D1000FD020E94D30F8091FF02813CC9F0E09028
:103D2000FC02F090FD0284E162E345E251E022E012
:103D300000E010EF0E94F6187BCE8091FC0290917B
:103D4000FD020E94D30F8091FF02813C09F0E7C081
:103D50000091010410910204E090FC02F090FD0239
:103D600084E162E34FE251E022E00E94F61881E034
:103D70001F910F91FF90EF9008958091FC02909118
:103D8000FD020E94D30FE090FC02F090FD0284E15E
:103D900062E341E151E022E000E010EF0E94F618FA
:103DA00047CE8091FC029091FD020E94D30FE090DB
:103DB000FC02F090FD0284E162E34BE151E022E07D
:103DC00000E010EF0E94F61833CE8091FC02909133
:103DD000FD020E94D30FE090FC02F090FD0284E10E
:103DE00062E341E151E022E000E010EF0E94F618AA
:103DF00076CE8091FC029091FD020E94D30FE0905C
:103E0000FC02F090FD0284E162E34BE151E022E02C
:103E100000E010EF0E94F61862CE8091FC029091B3
:103E2000FD020E94D30FE090FC02F090FD0284E1BD
:103E300062E34BE151E022E000E010EF0E94F6184F
:103E4000A5CE8091FC029091FD020E94D30F80913B
:103E5000FF02813C09F47CCFE090FC02F090FD026F
:103E600084E162E345E251E022E000E010EF0E94CD
:103E7000F6188CCE8091FC029091FD020E94D30F27
:103E8000E090FC02F090FD0284E162E341E151E048
:103E900022E000E010EF0E94F61878CE8091FC023C
:103EA0009091FD020E94D30F8091FF02813C09F4A2
:103EB0004FCFE090FC02F090FD0284E162E345E226
:103EC00051E022E000E010EF0E94F618B6CE80919B
:103ED000FC029091FD020E94D30FE090FC02F09052
:103EE000FD0284E162E341E151E022E000E010EFF5
:103EF0000E94F618A2CE8091FC029091FD020E94D1
:103F0000D30FE090FC02F090FD0284E162E34BE10C
:103F100051E022E000E010EF0E94F6188ECEE09013
:103F2000FC02F090FD0284E162E345E251E022E010
:103F300000E010EF0E94F618D2CD8091FC02909123
:103F4000FD020E94D30FE090FC02F090FD0284E19C
:103F500062E34BE151E022E000E010EF0E94F6182E
:103F6000C3CE8091FC029091FD020E94D30F8091FC
:103F7000FF02813C09F4ECCEE090FC02F090FD02DF
:103F800084E162E345E251E022E000E010EF0E94AC
:103F9000F618AACE8091FC029091FD020E94D30FE8
:103FA000E090FC02F090FD0284E162E341E151E027
:103FB00022E000E010EF0E94F61896CE8AE391E02E
:103FC00062E00E941F1C08956F927F928F929F92D1
:103FD000AF92BF92CF92DF92EF92FF920F931F9317
:103FE0006091130370E080E090E00E940C3120E0CB
:103FF00030E040EA51E40E94733026E636E646EAB5
:1040000050E40E940F309B01AC0120938504309353
:104010008604409387045093880480910903885252
:104020008093710480910B0380938E0480918E04A1
:10403000882309F4E3C090910C0388E2989FC001A3
:1040400011249093800480937F04809112038093C5
:104050008F04F894E0907A04F0907B0400917C0443
:1040600010917D048091810490918204A091830439
:10407000B0918404E81AF90A0A0B1B0B80917A04A8
:1040800090917B04A0917C04B0917D048093810485
:1040900090938204A0938304B093840478946091F5
:1040A0008F04A0906704B0906804C0906904D09019
:1040B0006A0470E080E090E0A80197010E948335D7
:1040C0000E940C31A60195010E940F309B01AC01AA
:1040D00020936704309368044093690450936A0402
:1040E00080918F04882309F094C090911E038091E1
:1040F0001D03792F60E0680F711D882777FD80957B
:10410000982F0E940E3120E030E048E452E40E94F3
:1041100073300E94DB3077FDD6C0882777FD80950D
:10412000982F0E940E316093890470938A048093C3
:104130008B0490938C0490911E0380911D03A0909A
:104140006D04B0906E04C0906F04D0907004792F0D
:1041500060E0680F711D882777FD8095982FA80172
:1041600097010E94833522E330E040E050E00E9456
:10417000A235CA01B9010E940C310E94DB308827A8
:1041800077FD8095982F0E940E31A60195010E941F
:104190000F309B01AC0120936D0430936E0440936B
:1041A0006F04509370049091180380911703792F36
:1041B00060E0680F711D882777FD8095982F0E9419
:1041C0000E3120E030E04AEF52E40E9473309B0150
:1041D000AC01209376043093770440937804509395
:1041E00079041F910F91FF90EF90DF90CF90BF90D7
:1041F000AF909F908F907F906F90089590910D0356
:104200008AE0989FC00111249093800480937F04DA
:104210001CCF9091200380911F03792F60E0680FDD
:10422000711D882777FD8095982F0E940E3120E020
:1042300030E040E05CE30E949A310E94DB3077FD81
:1042400046C0882777FD8095982F0E940E31609395
:10425000890470938A0480938B0490938C04A090BB
:104260002003D0901F0360918F0460906D047090C4
:104270006E0480906F049090700470E080E090E095
:10428000A80197010E9483353A2D20E02D0D311DA4
:10429000442737FD4095542F0E94833520E032E3B8
:1042A00040E050E00E94A235CA01B9010E940C31E1
:1042B0000E94DB30882777FD8095982F0E940E3171
:1042C000A401930164CF709561957F4F26CF7095BF
:1042D00061957F4FB6CF85E491E062E00E941F1C9C
:1042E00008951F936091030315E0619FB0011124AD
:1042F000882777FD8095982F0E940E3120E030E0CE
:1043000040E85BE30E949A319B01AC012093720468
:1043100030937304409374045093750460910503C3
:10432000619FB0011124882777FD8095982F0E9406
:104330000E3120E030E040E85BE30E949A319B01BF
:10434000AC0120936304309364044093650450935C
:1043500066041F9108958CE391E064E00E941F1CA5
:104360000895089580E491E063E00E941F1C089581
:1043700008951F920F920FB60F9211248F939F935F
:10438000AF93BF9386E086BD80916B0490916C04DF
:10439000019690936C0480936B04809107048823AA
:1043A00049F090917E049F5F90937E0490917E04EB
:1043B000891749F0BF91AF919F918F910F900FBED8
:1043C0000F901F90189510927E0481E08093050451
:1043D00080917A0490917B04A0917C04B0917D043B
:1043E0000196A11DB11D80937A0490937B04A09344
:1043F0007C04B0937D04DECF1F920F920FB60F9214
:1044000011248F9387EE8093850086E98093840042
:104410008F910F900FBE0F901F901895EEE6F0E071
:104420008081816080830895EEE6F0E080818E7F58
:1044300080830895EFE6F0E08081816080830895B5
:10444000EFE6F0E080818E7F808308950895AF923B
:10445000BF92CF92DF92EF92FF920F931F93CF9371
:10446000DF938FEE9BE79093020480930104909377
:1044700009048093080480910604882309F5E090DC
:10448000FC02F090FD0284EA6CE144E152E021E09C
:104490000FEE1BE70E94F6181092FE030E94DE1F2B
:1044A000809106048F5F80930604DF91CF911F9166
:1044B0000F91FF90EF90DF90CF90BF90AF90089555
:1044C000813019F010920604F0CF8091FE0388230A
:1044D00071F4E090FC02F090FD0284EA6CE144E1AA
:1044E00052E021E000E010E70E94F618DECF8130B4
:1044F000E1F6E090FC02F090FD0284EA6CE144E118
:1045000052E021E000EC13E00E94F6180E94E41F44
:1045100060916D0470916E0480916F0490917004AD
:10452000A0906704B0906804C0906904D0906A04B9
:104530002DB73EB72C5030400FB6F8943EBF0FBE9B
:104540002DBFEDB6FEB60894E11CF11CC1E9D4E024
:10455000ADB7BEB71296DC93CE93119727E431E046
:10456000F7013383228320E038EC4FEA58E40E94BD
:104570007330D70114966D937D938D939C93179709
:10458000C601B50120E038EC4FEA58E40E947330D0
:10459000F70160877187828793870E9415372DB74F
:1045A0003EB7245F3F4F0FB6F8943EBF0FBE2DBFFE
:1045B000E090FC02F090FD0282E06EE5AE0121E0A9
:1045C00000EC15EF0E94F61820918F0400D000D067
:1045D00000D0EDB7FEB73196ADB7BEB71296DC93FB
:1045E000CE9311978BE591E0938382832483158288
:1045F0000E941537EDB7FEB736960FB6F894FEBF9A
:104600000FBEEDBFE090FC02F090FD0284E36CE190
:10461000AE0122E000EC15E00E94F61880915F04E4
:10462000823009F450C3833008F03DC1882309F07B
:104630006CC28091850490918604A0918704B0910A
:1046400088042DB73EB7285030400FB6F8943EBFCF
:104650000FBE2DBF4DB75EB74F5F5F4FEDB7FEB7D3
:10466000D283C18323E631E0FA013383228384833A
:104670009583A683B7830E9415372DB73EB7285F71
:104680003F4F0FB6F8943EBF0FBE2DBF00910104FF
:1046900010910204E090FC02F090FD0283E066E0DD
:1046A000AE0121E00E94F6188091710487FDDDC5FE
:1046B0002091710400D000D000D0EDB7FEB7319644
:1046C000ADB7BEB71296DC93CE93119782E791E017
:1046D00093838283248315820E941537EDB7FEB73A
:1046E00036960FB6F894FEBF0FBEEDBF00910104E1
:1046F00010910204E090FC02F090FD0280E466E07C
:1047000041E954E021E00E94F61820918E0400D087
:1047100000D000D0EDB7FEB73196ADB7BEB7129658
:10472000DC93CE93119789E791E09383828324836E
:1047300015820E941537EDB7FEB736960FB6F8947E
:10474000FEBF0FBEEDBF0091010410910204E09086
:10475000FC02F090FD028AE866E0AE0121E00E94D2
:10476000F61880917F049091800400D000D000D092
:10477000EDB7FEB73196ADB7BEB71296DC93CE93C8
:1047800011972EE731E033832283958384830E943F
:104790001537EDB7FEB736960FB6F894FEBF0FBECD
:1047A000EDBF0091010410910204E090FC02F09032
:1047B000FD0284E166E3AE0123E00E94F6188091D9
:1047C000760490917704A0917804B09179042DB784
:1047D0003EB7285030400FB6F8943EBF0FBE2DBFF5
:1047E0004DB75EB74F5F5F4FEDB7FEB7D283C18362
:1047F00022E831E0FA013383228384839583A68300
:10480000B7830E9415372DB73EB7285F3F4F0FB6CD
:10481000F8943EBF0FBE2DBF009101041091020419
:10482000E090FC02F090FD0280E160E7AE0121E043
:104830000E94F6188091890490918A04A0918B04BB
:10484000B0918C04EDB7FEB738970FB6F894FEBF61
:104850000FBEEDBF4DB75EB74F5F5F4FD283C183D1
:104860002AE831E0FA013383228384839583A68387
:10487000B7830E9415372DB73EB7285F3F4F0FB65D
:10488000F8943EBF0FBE2DBF0091010410910204A9
:10489000E090FC02F090FD0288E660E7AE0121E0C6
:1048A0000E94F6180FCE843009F483C3843008F4D4
:1048B000D4C2853009F006CE80918504909186049B
:1048C000A0918704B0918804EDB7FEB738970FB672
:1048D000F894FEBF0FBEEDBF4DB75EB74F5F5F4FA1
:1048E000D283C18323E631E0FA01338322838483B8
:1048F0009583A683B7830E9415372DB73EB7285FEF
:104900003F4F0FB6F8943EBF0FBE2DBF009101047C
:1049100010910204E090FC02F090FD0283E066E05A
:10492000AE0121E00E94F6188091710487FDC0C499
:104930002091710400D000D000D0EDB7FEB73196C1
:10494000ADB7BEB71296DC93CE93119782E791E094
:1049500093838283248315820E941537EDB7FEB7B7
:1049600036960FB6F894FEBF0FBEEDBF009101045E
:1049700010910204E090FC02F090FD0280E466E0F9
:1049800041E954E021E00E94F61820918E0400D005
:1049900000D000D0EDB7FEB73196ADB7BEB71296D6
:1049A000DC93CE93119789E791E0938382832483EC
:1049B00015820E941537EDB7FEB736960FB6F894FC
:1049C000FEBF0FBEEDBF0091010410910204E09004
:1049D000FC02F090FD028AE866E0AE0121E00E9450
:1049E000F6188091890490918A04A0918B04B0916B
:1049F0008C042DB73EB7285030400FB6F8943EBF18
:104A00000FBE2DBF4DB75EB74F5F5F4FEDB7FEB71F
:104A1000D283C1832AE831E0FA013383228384837D
:104A20009583A683B7830E9415372DB73EB7285FBD
:104A30003F4F0FB6F8943EBF0FBE2DBF009101044B
:104A400010910204E090FC02F090FD0284E166E324
:104A5000AE0123E00E94F6188091760490917704CD
:104A6000A0917804B0917904EDB7FEB738970FB6EE
:104A7000F894FEBF0FBEEDBF4DB75EB74F5F5F4FFF
:104A8000D283C18322E831E0FA0133832283848315
:104A90009583A683B7830E9415372DB73EB7285F4D
:104AA0003F4F0FB6F8943EBF0FBE2DBF00910104DB
:104AB00010910204E090FC02F090FD0280E160E7BA
:104AC000AE0121E00E94F61880917F04909180044D
:104AD00000D000D000D0EDB7FEB73196ADB7BEB76D
:104AE0001296DC93CE9311972EE731E03383228325
:104AF000958384830E941537EDB7FEB736960FB6BF
:104B0000F894FEBF0FBEEDBFBFCE813009F0DACC06
:104B100080917F049091800400D000D000D0EDB748
:104B2000FEB73196ADB7BEB71296DC93CE93119710
:104B30002EE731E033832283958384830E941537E7
:104B4000EDB7FEB736960FB6F894FEBF0FBEEDBFB9
:104B50000091010410910204E090FC02F090FD022B
:104B600083E066E0AE0121E00E94F61880917104B6
:104B700087FD35C32091710400D000D000D0EDB77F
:104B8000FEB73196ADB7BEB71296DC93CE931197B0
:104B900082E791E093838283248315820E941537F4
:104BA000EDB7FEB736960FB6F894FEBF0FBEEDBF59
:104BB0000091010410910204E090FC02F090FD02CB
:104BC00080E466E041E954E021E00E94F61820917B
:104BD0008E0400D000D000D0EDB7FEB73196ADB74F
:104BE000BEB71296DC93CE93119789E791E0938339
:104BF0008283248315820E941537EDB7FEB736965F
:104C00000FB6F894FEBF0FBEEDBF009101041091E6
:104C10000204E090FC02F090FD028AE866E0AE013A
:104C200021E00E94F6188091850490918604A0915D
:104C30008704B09188042DB73EB7285030400FB696
:104C4000F8943EBF0FBE2DBF4DB75EB74F5F5F4FAD
:104C5000EDB7FEB7D283C18323E631E0FA01338397
:104C6000228384839583A683B7830E9415372DB74B
:104C70003EB7285F3F4F0FB6F8943EBF0FBE2DBF23
:104C80000091010410910204E090FC02F090FD02FA
:104C900084E166E3AE0123E00E94F6188091760479
:104CA00090917704A0917804B0917904EDB7FEB7A4
:104CB00038970FB6F894FEBF0FBEEDBF4DB75EB785
:104CC0004F5F5F4F93CD8091850490918604A091B2
:104CD0008704B0918804EDB7FEB738970FB6F89403
:104CE000FEBF0FBEEDBF4DB75EB74F5F5F4FD283C4
:104CF000C18323E631E0FA013383228384839583E1
:104D0000A683B7830E9415372DB73EB7285F3F4F64
:104D10000FB6F8943EBF0FBE2DBF00910104109155
:104D20000204E090FC02F090FD0283E066E0AE0138
:104D300021E00E94F61880917F049091800400D0B9
:104D400000D000D0EDB7FEB73196ADB7BEB7129622
:104D5000DC93CE9311972EE731E033832283958342
:104D600084830E941537EDB7FEB736960FB6F894D8
:104D7000FEBF0FBEEDBF0091010410910204E09050
:104D8000FC02F090FD0280E466E0AE0121E00E94AA
:104D9000F61820918E048DB79EB708970FB6F89439
:104DA0009EBF0FBE8DBFEDB7FEB73196ADB7BEB794
:104DB0001296DC93CE93119782E991E093838283DC
:104DC0002483158286E290E0978386830E941537BC
:104DD000EDB7FEB738960FB6F894FEBF0FBEEDBF25
:104DE0000091010410910204E090FC02F090FD0299
:104DF0008AE866E0AE0121E00E94F6188091710415
:104E000087FD79C22091710400D000D000D0EDB7A9
:104E1000FEB73196ADB7BEB71296DC93CE9311971D
:104E200082E791E093838283248315820E94153761
:104E3000EDB7FEB736960FB6F894FEBF0FBEEDBFC6
:104E40000091010410910204E090FC02F090FD0238
:104E500084E166E341E954E0AFCC80918504909110
:104E60008604A0918704B0918804EDB7FEB7389707
:104E70000FB6F894FEBF0FBEEDBF4DB75EB74F5FE4
:104E80005F4FD283C18323E631E0FA01338322836B
:104E900084839583A683B7830E9415372DB73EB7C9
:104EA000285F3F4F0FB6F8943EBF0FBE2DBF009155
:104EB000010410910204E090FC02F090FD0283E0F6
:104EC00066E0AE0121E00E94F6188091710487FD32
:104ED00035C22091710400D000D000D0EDB7FEB7EC
:104EE0003196ADB7BEB71296DC93CE93119782E799
:104EF00091E093838283248315820E941537EDB756
:104F0000FEB736960FB6F894FEBF0FBEEDBF009108
:104F1000010410910204E090FC02F090FD0280E494
:104F200066E041E954E021E00E94F61880917F0498
:104F30009091800400D000D000D0EDB7FEB731963C
:104F4000ADB7BEB71296DC93CE9311972EE731E042
:104F500033832283958384830E941537EDB7FEB790
:104F600036960FB6F894FEBF0FBEEDBF0091010458
:104F700010910204E090FC02F090FD028AE866E0E5
:104F8000AE0121E00E94F61820918E0400D000D0DE
:104F900000D0EDB7FEB73196ADB7BEB71296DC9331
:104FA000CE93119789E791E09383828324831582BE
:104FB000EECB8091850490918604A0918704B091F6
:104FC0008804EDB7FEB738970FB6F894FEBF0FBE52
:104FD000EDBF4DB75EB74F5F5F4FD283C18323E60E
:104FE00031E0FA013383228384839583A683B783D8
:104FF0000E9415372DB73EB7285F3F4F0FB6F89484
:105000003EBF0FBE2DBF0091010410910204E0903D
:10501000FC02F090FD0283E066E0AE0121E00E9418
:10502000F6188091710487FDFDC02091710400D0B5
:1050300000D000D0EDB7FEB73196ADB7BEB712962F
:10504000DC93CE93119782E791E09383828324834C
:1050500015820E941537EDB7FEB736960FB6F89455
:10506000FEBF0FBEEDBF0091010410910204E0905D
:10507000FC02F090FD0280E466E041E954E021E0AA
:105080000E94F61820918E0400D000D000D0EDB719
:10509000FEB73196ADB7BEB71296DC93CE9311979B
:1050A00089E791E093838283248315820E941537D8
:1050B000EDB7FEB736960FB6F894FEBF0FBEEDBF44
:1050C0000091010410910204E090FC02F090FD02B6
:1050D0008AE866E0AE0121E00E94F618809176042D
:1050E00090917704A0917804B09179042DB73EB7E0
:1050F000285030400FB6F8943EBF0FBE2DBF4DB7BD
:105100005EB74F5F5F4FEDB7FEB7D283C18322E832
:1051100031E0FA013383228384839583A683B783A6
:105120000E9415372DB73EB7285F3F4F0FB6F89452
:105130003EBF0FBE2DBF0091010410910204E0900C
:10514000FC02F090FD0284E166E3AE0123E00E94E0
:10515000F61880917F049091800400D000D000D098
:10516000EDB7FEB73196ADB7BEB71296DC93CE93CE
:1051700011972EE731E033832283958384830E9445
:105180001537EDB7FEB736960FB6F894FEBF0FBED3
:10519000EDBF0091010410910204E090FC02F09038
:1051A000FD0280E160E7AE0121E00E94F6188091E7
:1051B000890490918A04A0918B04B0918C042DB73E
:1051C0003EB7285030400FB6F8943EBF0FBE2DBFFB
:1051D0004DB75EB74F5F5F4FEDB7FEB73FCB209146
:1051E000710400D000D000D0EDB7FEB73196ADB756
:1051F000BEB71296DC93CE9311978BE691E0938322
:10520000828380E091E0821B9109958384830E94D0
:105210001537EDB7FEB736960FB6F894FEBF0FBE42
:10522000EDBFC6CC2091710400D000D000D0EDB706
:10523000FEB73196ADB7BEB71296DC93CE931197F9
:105240008BE691E09383828380E091E0821B910959
:10525000958384830E941537EDB7FEB736960FB657
:10526000F894FEBF0FBEEDBFFECE2091710400D0BA
:1052700000D000D0EDB7FEB73196ADB7BEB71296ED
:10528000DC93CE9311978BE691E09383828380E049
:1052900091E0821B9109958384830E941537EDB7B5
:1052A000FEB736960FB6F894FEBF0FBEEDBF1ECA0E
:1052B0002091710400D000D000D0EDB7FEB7319638
:1052C000ADB7BEB71296DC93CE9311978BE691E003
:1052D0009383828380E091E0821B9109958384838C
:1052E0000E941537EDB7FEB736960FB6F894FEBF9D
:1052F0000FBEEDBF3BCB2091710400D000D000D099
:10530000EDB7FEB73196ADB7BEB71296DC93CE932C
:1053100011978BE691E09383828380E091E0821B7A
:105320009109958384830E941537EDB7FEB73696B1
:105330000FB6F894FEBF0FBEEDBF82CD2091710471
:1053400000D000D000D0EDB7FEB73196ADB7BEB7F4
:105350001296DC93CE9311978BE691E09383828330
:1053600080E091E0821B9109958384830E94153728
:10537000EDB7FEB736960FB6F894FEBF0FBEEDBF81
:10538000C6CD2F923F924F925F926F927F928F92F3
:105390009F92AF92BF92DF92EF92FF920F931F9373
:1053A000CF93DF9320907A0430907B0440907C046C
:1053B00050907D0460917A0470917B0480917C040C
:1053C00090917D04E4E68E2E912CA12CB12CA501A8
:1053D00094010E94A2357CE3E72EF12C012D112DC2
:1053E000CA01B901A80197010E94A235D62E8DB736
:1053F0009EB70C970FB6F8949EBF0FBE8DBFCDB76A
:10540000DEB7219661E9662E64E0762EEDB7FEB731
:105410007282618288E991E09B838A83CA01B90123
:10542000A80197010E94A235E62ECA01B90128E120
:1054300030E040E050E00E94A2356C831D82EE8295
:105440001F82D8861986C201B101A50194010E946C
:10545000A2356A871B860E9415378DB79EB70C96BA
:105460000FB6F8949EBF0FBE8DBF8CE360E0A30122
:1054700021E00EED15EF9EE0E92EF12C0E94F618CA
:10548000DF91CF911F910F91FF90EF90DF90BF9030
:10549000AF909F908F907F906F905F904F903F90D4
:1054A0002F900895EF92FF920F931F938EE190E05B
:1054B0009093FD028093FC020E94D30F80E090EF56
:1054C0009093020480930104E090FC02F090FD02AE
:1054D00088E062E240EB51E021E000E010EF0E9442
:1054E000F61888E292E0909362048093610481E070
:1054F000809360040E9414228AE080930704E3E012
:10550000F4E081EC99E291838083128213820E94FD
:105510000E221F910F91FF90EF900895EF92FF924E
:105520000F931F938EE190E09093FD028093FC0215
:105530000E94D30F80E090EF9093020480930104C7
:10554000E090FC02F090FD0288E062E247EB51E05F
:1055500021E000E010EF0E94F61886E192E09093BF
:1055600062048093610481E0809360040E941422AD
:105570008AE080930704E3E0F4E081EC99E2918310
:105580008083128213820E940E221F910F91FF903E
:10559000EF900895EF92FF920F931F938EE190E0AA
:1055A0009093FD028093FC020E94D30F80E090EF65
:1055B0009093020480930104E090FC02F090FD02BD
:1055C00088E062E24EEB51E021E000E010EF0E9443
:1055D000F6188CE192E0909362048093610481E07C
:1055E000809360040E9414228AE080930704E3E021
:1055F000F4E081EC99E291838083128213820E940D
:105600000E221F910F91FF90EF900895EF92FF925D
:105610000F931F938EE190E09093FD028093FC0224
:105620000E94D30F80E090EF9093020480930104D6
:10563000E090FC02F090FD0288E062E242EC51E072
:1056400021E000E010EF0E94F61882E292E09093D1
:1056500062048093610481E0809360040E941422BC
:105660008AE080930704E3E0F4E081EC99E291831F
:105670008083128213820E940E221F910F91FF904D
:10568000EF900895AF92BF92CF92DF92EF92FF9288
:105690000F931F93CF93DF938EE090E09093FD02E2
:1056A0008093FC020E94D30F8EE190E09093FD0264
:1056B0008093FC028FEE9BE7909302048093010499
:1056C000109209041092080482E36EE14EE72CE385
:1056D00000E010E00E94021383E36FE14DE72BE34B
:1056E0000EE110E00E948D10B2E3BB2EB0920B04CD
:1056F0008EE180930C04AEE7AA2EA0920D048CE3F9
:1057000080930E04FEEECF2EFBE2DF2ED09210042B
:10571000C0920F040091010410910204E090FC0279
:10572000F090FD0286E469E248EC51E021E00E943D
:10573000F618C091FC02D091FD020091080410916E
:10574000090482E36CE44EE72AE60E94021383E335
:105750006DE44DE729E68E010E948D10B092110490
:105760008CE480931204A09213048AE680931404BC
:10577000D0921604C0921504009101041091020405
:10578000E090FC02F090FD0286E467E54EEC51E00B
:1057900021E00E94F6188BE094E0909362048093DD
:1057A000610482E0809360040E9414228AE0809366
:1057B0000704E3E0F4E081EC99E2918380831282B4
:1057C00013820E940E22DF91CF911F910F91FF90C3
:1057D000EF90DF90CF90BF90AF9008958F929F92FF
:1057E000AF92BF92CF92DF92EF92FF920F931F93EF
:1057F000CF93DF938EE090E09093FD028093FC02C4
:105800000E94D30F8EE190E09093FD028093FC0202
:105810008FEE9BE790930204809301041092090499
:105820001092080488E068E043E52CE200E010E014
:105830000E94021389E069E042E52BE20EE110E0EC
:105840000E948D1068E0D62ED0923B04D0923C048A
:1058500053E5A52EA0923D044CE2C42EC0923E0416
:1058600084EB9FE29093400480933F0400910104F5
:1058700010910204E090FC02F090FD028CE165E1E1
:1058800044ED51E021E00E94F618C091FC02D09155
:10589000FD0200910804109109048DE568E048EAD2
:1058A0002CE20E9402138EE569E047EA2BE28E01AA
:1058B0000E948D103DE5932E90924104D0924204B7
:1058C00028EA822E80924304C09244048EE89AE231
:1058D00090934604809345040091010410910204C2
:1058E000E090FC02F090FD028CE665E147EB51E0B0
:1058F00021E00E94F618C091FC02D091FD020091B7
:1059000008041091090488E068E343E52CE50E944F
:10591000021389E069E342E52BE58E010E948D10B8
:10592000D092470498E3C92EC0924804A09249043B
:105930008CE5B82EB0924A048AEC9AE290934C041B
:1059400080934B040091010410910204E090FC024A
:10595000F090FD0284E265E44AED51E021E00E940E
:10596000F618C091FC02D091FD020091080410913C
:1059700009048DE568E348EA2CE50E9402138EE5F0
:1059800069E347EA2BE58E010E948D1090924D0449
:10599000C0924E0480924F04B092500486E09BE285
:1059A00090935204809351040091010410910204D9
:1059B000E090FC02F090FD0280E665E44EED51E0DF
:1059C00021E00E94F61880E090EF9093020480930B
:1059D0000104C091FC02D091FD02009108041091D5
:1059E000090488E068E643E52CE70E94021389E099
:1059F00069E642E52BE78E010E948D10D092530498
:105A000008E6D02ED0925404A09255041CE7C12E73
:105A1000C092560482E59AE290935804809357040A
:105A20000091010410910204E090FC02F090FD024C
:105A30008BE06EE648EE51E021E00E94F618C0913E
:105A4000FC02D091FD0200910804109109048DE53B
:105A500068E648EA2CE70E9402138EE569E647EA09
:105A60002BE78E010E948D1090925904D0925A0417
:105A700080925B04C0925C0482E49BE290935E049B
:105A800080935D040091010410910204E090FC02F7
:105A9000F090FD028AE66EE642EF51E021E00E94BE
:105AA000F6188BE394E0909362048093610486E09F
:105AB000809360040E9414228AE080930704E3E04C
:105AC000F4E086E292E291838083128213820E9444
:105AD0000E22DF91CF911F910F91FF90EF90DF90F9
