:100000000C9492090C94AF090C94AF090C94AF09AD
:100010000C94AF090C94AF090C94AF090C94AF0980
:100020000C94AF090C94AF090C94AF090C94AF0970
:100030000C94AF090C94A61D0C94AF090C94AF0955
:100040000C94631D0C94AF090C94F8160C94901743
:100050000C94AF090C94AF090C94AF090C94AF0940
:100060000C94AF090C94AF09CDE8E7EAE8E920F376
:10007000F0EEE2E5EDFC20F1E8E3EDE0EBE020F16D
:1000800020E4E0F2F7E8EAE020F0E0F1F5EEE4E069
:1000900020E2EEE7E4F3F5E000C2FBF1EEEAE8E986
:1000A00020F3F0EEE2E5EDFC20F1E8E3EDE0EBE03B
:1000B00020F120E4E0F2F7E8EAE020F0E0F1F5EEEC
:1000C000E4E020E2EEE7E4F3F5E000CDE8E7EAE87B
:1000D000E920F3F0EEE2E5EDFC20F1E8E3EDE0EB02
:1000E000E020F120E4E0F2F7E8EAE020F2E5ECEFCE
:1000F000E5F0E0F2F3F0FB20EEF5EBE0E6E4E0FE05
:10010000F9E5E920E6E8E4EAEEF1F2E800C2FBF105
:10011000EEEAE8E920F3F0EEE2E5EDFC20F1E8E3B9
:10012000EDE0EBE020F120E4E0F2F7E8EAE020F295
:10013000E5ECEFE5F0E0F2F3F0FB20EEF5EBE0E6C6
:10014000E4E0FEF9E5E920E6E8E4EAEEF1F2E800B1
:10015000CDE8E7EAE8E920F3F0EEE2E5EDFC20F196
:10016000E8E3EDE0EBE020F120E4E0F2F7E8EAE09C
:1001700020EFEEEBEEE6E5EDE8FF20E4F0EEF1F146
:10018000E5EBFF00C2FBF1EEEAE8E920F3F0EEE276
:10019000E5EDFC20F1E8E3EDE0EBE020F120E4E028
:1001A000F2F7E8EAE020EFEEEBEEE6E5EDE8FF201F
:1001B000E4F0EEF1F1E5EBFF00CDE8E7EAE8E92055
:1001C000F3F0EEE2E5EDFC20F1E8E3EDE0EBE0201A
:1001D000F120E4E0F2F7E8EAE020EAE8F1EBEEF003
:1001E000EEE4E000C2FBF1EEEAE8E920F3F0EEE233
:1001F000E5EDFC20F1E8E3EDE0EBE020F120E4E0C8
:10020000F2F7E8EAE020EAE8F1EBEEF0EEE4E000F5
:10021000CDE5F220E0EAF2E8E2EDEEF1F2E820E4EA
:10022000E0F2F7E8EAE020EAE8F1EBEEF0EEE4E0F5
:1002300000CEE1F0FBE220EDE0E3F0E5E2E0F2E504
:10024000EBFF20E4E0F2F7E8EAE020EAE8F1EBEE89
:10025000F0EEE4E000D1E8F1F2E5ECE020F1EBE8CB
:10026000F8EAEEEC20E1E5E4EDE0FF00D1E8F1F2A0
:10027000E5ECE020F1EBE8F8EAEEEC20E1EEE3E07B
:10028000F2E0FF00D6E5EFFC20F3EFF0E0E2EBE573
:10029000EDE8FF20F4EEF0F1F3EDEAEEE92020B90D
:1002A000312C20EEE1F0FBE200D6E5EFFC20F3EF8D
:1002B000F0E0E2EBE5EDE8FF20F4EEF0F1F3EDEA3B
:1002C000EEE92020B9322C20EEE1F0FBE200D6E589
:1002D000EFFC20F3EFF0E0E2EBE5EDE8FF20F4EED9
:1002E000F0F1F3EDEAEEE92020B9332C20EEE1F055
:1002F000FBE200D6E5EFFC20F3EFF0E0E2EBE5ED0A
:10030000E8FF20F4EEF0F1F3EDEAEEE92020B93455
:100310002C20EEE1F0FBE200D6E5EFFC20F3EFF05D
:10032000E0E2EBE5EDE8FF20F4EEF0F1F3EDEAEECC
:10033000E92020B9312C20E7E0ECEAEDF3F2E020EF
:10034000EDE020E7E5ECEBFE00D6E5EFFC20F3EF77
:10035000F0E0E2EBE5EDE8FF20F4EEF0F1F3EDEA9A
:10036000EEE92020B9312C20E7E0ECEAEDF3F2E0F1
:1003700020EDE0202B3132C200D6E5EFFC20F3EF78
:10038000F0E0E2EBE5EDE8FF20F4EEF0F1F3EDEA6A
:10039000EEE92020B9322C20E7E0ECEAEDF3F2E0C0
:1003A00020EDE020E7E5ECEBFE00D6E5EFFC20F3E6
:1003B000EFF0E0E2EBE5EDE8FF20F4EEF0F1F3ED35
:1003C000EAEEE92020B9322C20E7E0ECEAEDF3F286
:1003D000E020EDE0202B3132C200D6E5EFFC20F327
:1003E000EFF0E0E2EBE5EDE8FF20F4EEF0F1F3ED05
:1003F000EAEEE92020B9332C20E7E0ECEAEDF3F255
:10040000E020EDE020E7E5ECEBFE00D6E5EFFC2098
:10041000F3EFF0E0E2EBE5EDE8FF20F4EEF0F1F3CE
:10042000EDEAEEE92020B9332C20E7E0ECEAEDF329
:10043000F2E020EDE0202B3132C200D6E5EFFC20C7
:10044000F3EFF0E0E2EBE5EDE8FF20F4EEF0F1F39E
:10045000EDEAEEE92020B9342C20E7E0ECEAEDF3F8
:10046000F2E020EDE020E7E5ECEBFE00D6E5EFFC66
:1004700020F3EFF0E0E2EBE5EDE8FF20F4EEF0F141
:10048000F3EDEAEEE92020B9342C20E7E0ECEAEDC8
:10049000F3F2E020EDE0202B3132C200CEE1F0FBA0
:1004A000E220E4E0F2F7E8EAE020E4E5F2EEEDE055
:1004B000F6E8E800CDE8E7EAE8E920F3F0EEE2E567
:1004C000EDFC20F8F3ECE020E4E2E8E3E0F2E5EB19
:1004D000FF00C2FBF1EEEAE8E920F3F0EEE2E5ED21
:1004E000FC20F8F3ECE020E4E2E8E3E0F2E5EBFFE7
:1004F00000CEF8E8E1EAE020E4E0F2F7E8EAE02004
:10050000F1E8EDF5F0EEEDE8E7E0F6E8E820CAC244
:1005100000CEF8E8E1EAE020E4E0F2F7E8EAE020E3
:10052000F4E0E7FB00CDE5E8F1EFF0E0E2EDEEF11D
:10053000F2FC20F3EFF0E0E2EBE5EDE8FF20EAEB80
:10054000E0EFE0EDEEEC20EFF0EEE4F3E2EAE8209D
:10055000E0E4F1EEF0E1E5F0E000CDE5E8F1EFF008
:10056000E0E2EDEEF1F2FC20F6E5EFE820F3EFF04B
:10057000E0E2EBE5EDE8FF20E2E5EDF2E8EBFFF28B
:10058000EEF0EEEC20B93100CEF8E8E1EAE020E44C
:10059000E0F2F7E8EAE020F1EAEEF0EEF1F2E8202E
:1005A000E0E2F2EEECEEE1E8EBFF00CEF8E8E1EAA3
:1005B000E020F0E5E3F3EBFFF2EEF0E020F5EEEB08
:1005C000EEF1F2EEE3EE20F5EEE4E000CDE8E7EA4E
:1005D000EEE520E1EEF0F2EEE2EEE520EDE0EFF008
:1005E000FFE6E5EDE8E500C2FBF1EEEAEEE520E12D
:1005F000EEF0F2EEE2EEE520EDE0EFF0FFE6E5ED05
:10060000E8E500CEF8E8E1EAE020CFC7D300CEF875
:10061000E8E1EAE020CEC7D300D6E5EFFC20F3EF17
:10062000F0E0E2EBE5EDE8FF20EAEBE0EFE0EDEEF5
:10063000EC20EFF0EEE4F3E2EAE820E0E4F1EEF0A3
:10064000E1E5F0E02C20E7E0ECFBEAE0EDE8E52076
:10065000EDE0202B3132C200D6E5EFFC20F3EFF0C5
:10066000E0E2EBE5EDE8FF20EAEBE0EFE0EDEEECB9
:1006700020EFF0EEE4F3E2EAE820E0E4F1EEF0E16E
:10068000E5F0E02C20E7E0ECFBEAE0EDE8E520ED2A
:10069000E020E7E5ECEBFE00D6E5EFFC20F3EFF021
:1006A000E0E2EBE5EDE8FF20EAEBE0EFE0EDEEEC79
:1006B00020EFF0EEE4F3E2EAE820E0E4F1EEF0E12E
:1006C000E5F0E02C20EEE1F0FBE200D6E5EFFC20C7
:1006D000F3EFF0E0E2EBE5EDE8FF20F0E5EBE520FD
:1006E000E1E5EDE7EEEDE0F1EEF1E02C20E7E0EC06
:1006F000FBEAE0EDE8E520EDE020E7E5ECEBFE00CD
:10070000D6E5EFFC20F3EFF0E0E2EBE5EDE8FF20CB
:10071000F0E5EBE520E1E5EDE7EEEDE0F1EEF1E00F
:100720002C20E7E0ECFBEAE0EDE8E520EDE0202B13
:100730003132C200D6E5EFFC20F3EFF0E0E2EBE56A
:10074000EDE8FF20F0E5E3F3EBFFF2EEF0EEEC2056
:10075000F5EEEBEEF1F2EEE3EE20F5EEE4E02C2028
:10076000EFE5F0E5E3F0F3E7EAE000D6E5EFFC20A3
:10077000F3EFF0E0E2EBE5EDE8FF20F0E5E3F3EB8B
:10078000FFF2EEF0EEEC20F5EEEBEEF1F2EEE3EE42
:1007900020F5EEE4E02C20E7E0ECFBEAE0EDE8E514
:1007A00020EDE020E7E5ECEBFE00D6E5EFFC20F3E2
:1007B000EFF0E0E2EBE5EDE8FF20F0E5E3F3EBFF3F
:1007C000F2EEF0EEEC20F5EEEBEEF1F2EEE3EE20E1
:1007D000F5EEE4E02C20EEE1F0FBE220E8EBE8208F
:1007E000E7E0ECFBEAE0EDE8E520EDE0202B31323C
:1007F000C200D6E5EFFC20F3EFF0E0E2EBE5EDE838
:10080000FF20F0E5EBE520E1E5EDE7EEEDE0F1EED0
:10081000F1E02C20EEE1F0FBE200CDE5F220F1E288
:10082000FFE7E820F120E8ECECEEE1E8EBE8E7E0B8
:10083000F2EEF0EEEC00CFF0EEEFE0E4E0EDE8E514
:1008400020EDE0EFF0FFE6E5EDE8FF20E1EEF0F26D
:10085000F1E5F2E800CEF8E8E1EAE0204545505243
:100860004F4D00CEF8E8E1EAE020F1E1F0EEF1E0F2
:1008700020E1EBEEEAE020F3EFF0E0E2EBE5EDE87B
:10088000FF00000000000000000000000000183C15
:100890003C3C18180018180066666624000000002A
:1008A000000000006C6CFE6C6C6CFE6C6C00187CC4
:1008B000C6C2C07C0686C67C18000000C2C60C18E2
:1008C0003066C600003C6666663C000000000030F2
:1008D00030306000000000000000000C18303030A4
:1008E0003030180C000030180C0C0C0C0C183000B8
:1008F000000000663CFF3C66000000000000181885
:100900007E181800000000000000000000181818F1
:10091000300000000000FE000000000000000000A9
:10092000000000003030000002060C183060C0806B
:100930000000007CC6CEDEF6E6C6C67C0000183895
:100940007818181818187E00007CC6060C1830603D
:10095000C6FE00007CC606063C0606C67C00000CEF
:100960001C3C6CCCFE0C0C1E0000FEC0C0C0FC0683
:1009700006C67C00003860C0C0FCC6C6C67C00004D
:10098000FEC6060C183030303000007CC6C6C67C6F
:10099000C6C6C67C00007CC6C6C67E06060C7800AD
:1009A00000001818000000181800000000181800B7
:1009B00000001818300000060C18306030180C06C3
:1009C00000000000007E00007E0000000060301883
:1009D0000C060C18306000007CC6C60C18180018F5
:1009E0001800007CC6C6DEDEDEDCC07C00001038ED
:1009F0006CC6C6FEC6C6C60000FC6666667C666639
:100A000066FC00003C66C2C0C0C0C2663C0000F884
:100A10006C66666666666CF80000FE6662687868FA
:100A20006266FE0000FE66626878686060F0000042
:100A30003C66C2C0C0DEC6663A0000C6C6C6C6FE78
:100A4000C6C6C6C600003C181818181818183C006E
:100A5000001E0C0C0C0C0CCCCC780000E6666C6C08
:100A6000786C6C66E60000F060606060606266FE54
:100A70000000C6EEFEFED6C6C6C6C60000C6E6F636
:100A8000FEDECEC6C6C60000386CC6C6C6C6C66C7C
:100A9000380000FC6666667C606060F000007CC622
:100AA000C6C6C6D6DE7C0C0E00FC6666667C6C662E
:100AB00066E600007CC6C660380CC6C67C00007EB8
:100AC0007E5A18181818183C0000C6C6C6C6C6C6F6
:100AD000C6C67C0000C6C6C6C6C6C66C38100000B6
:100AE000C6C6C6C6D6D6FE7C6C0000C6C66C3838F4
:100AF000386CC6C60000666666663C1818183C006E
:100B000000FEC68C183060C2C6FE00003C3030309B
:100B1000303030303C000080C0E070381C0E0602DF
:100B200000003C0C0C0C0C0C0C0C3C00386CC6008F
:100B300000000000000000000000000000000000B5
:100B4000000030180000000000000000000000005D
:100B500000780C7CCCCC760000E06060786C666637
:100B6000667C00000000007CC6C0C0C67C00001C83
:100B70000C0C3C6CCCCCCC7600000000007CC6FE9B
:100B8000C0C67C0000386C6460F0606060F00000FB
:100B900000000076CCCCCC7C0CCC00E060606C76A5
:100BA000666666E6000018180038181818183C0029
:100BB000000606000E06060606666600E060606631
:100BC0006C786C66E6000038181818181818183C6D
:100BD0000000000000ECFED6D6D6C60000000000E3
:100BE000DC666666666600000000007CC6C6C6C697
:100BF0007C0000000000DC6666667C60600000002F
:100C00000076CCCCCC7C0C0C00000000DC7666605E
:100C100060F000000000007CC6701CC67C00001064
:100C20003030FC303030361C0000000000CCCCCC22
:100C3000CCCC760000000000666666663C180000BA
:100C4000000000C6C6D6D6FE6C0000000000C66CD0
:100C500038386CC60000000000C6C6C6C67E060C4A
:100C600000000000FECC183066FE00000E181818B8
:100C7000701818180E0000181818180018181818EE
:100C80000000701818180E18181870000076DC0094
:100C90000000000000000000000000000000004212
:100CA000427E000000000000000000000000000084
:100CB0000000000000000000000000000000000034
:100CC0000000000000000000000000000000000024
:100CD0000000000000000000000000000000000014
:100CE0000000000000000000000000000000000004
:100CF00000000000000000000000000000000000F4
:100D000000000000000000000000000000000000E3
:100D100000000000000000000000000000000000D3
:100D200000000000000000000000000000000000C3
:100D300000000000000000000000000000000000B3
:100D400000000000000000000000000000000000A3
:100D50000000000000000000000000000000000093
:100D60000000000000000000000000000000000083
:100D70000000000000000000000000000000000073
:100D8000000000000000000000000000000000184B
:100D9000180000000000000000000000000000003B
:100DA0000000000000000000000000000000000043
:100DB0000000000000000000000000000000000033
:100DC0000000000000000000000000000000000023
:100DD0000000000000000000000000000000000013
:100DE0000000000000000000000000000000000003
:100DF00000000000000000000000000000000000F3
:100E000000000000000000000000000000000000E2
:100E10001818007E001818000000000076DC00762C
:100E2000DC0000000000000000000000000070D89E
:100E30003060C8F800000000000000000000000062
:100E400000000000000000000000000000000000A2
:100E500000000000000000000000000000FE000094
:100E6000FE0000FE00000000000000000000000086
:100E7000000030180C060C1830007E000000000046
:100E80000000000000000000000000000000000062
:100E90000000000000000000000000000000000052
:100EA00000000000000000000E1B1B181818181886
:100EB0001818386C6C3800000000000000000000BA
:100EC0000000000000000000000000000000000022
:100ED0000000000000000000000000000000000012
:100EE0000000000000000000000000000000000002
:100EF00000000000000000000000000000000000F2
:100F00000000000000001800000000000018187E1B
:100F100018180000FF00003C4299A5A1A599423C89
:100F200000000C18306030180C007E00000000003B
:100F300000000000000000000000000000000000B1
:100F400000000000000000000000000000000000A1
:100F50000000000000000018181818181818D8D839
:100F6000D870001E3666C6C6FEC6C6C60000FE6243
:100F7000607C66666666FC0000FC6666667C66668B
:100F800066FC0000FE62626060606060F000001E4F
:100F900036666666666666FFC300FE6662687868E7
:100FA0006266FE0000D6D654547C54D6D6D60000D5
:100FB0007CC606063C0606C67C0000C6C6CEDEF62B
:100FC000E6C6C6C60038C6C6CEDEF6E6C6C6C6004B
:100FD00000E6666C6C786C6C66E600001E3666C6D1
:100FE000C6C6C6C6C60000C6EEFEFED6C6C6C6C685
:100FF0000000C6C6C6C6FEC6C6C6C600007CC6C6BB
:10100000C6C6C6C6C67C0000FEC6C6C6C6C6C6C61E
:10101000C60000FC6666667C606060F000003C66AE
:10102000C2C0C0C0C2663C00007E5A18181818180A
:10103000183C0000C6C6C6C6C67E06C67C003C1864
:101040007EDBDBDBDB7E183C0000C6C66C7C387CBC
:101050006CC6C60000CCCCCCCCCCCCCCCCFE060034
:10106000C6C6C6C6C67E0606060000DBDBDBDBDBCB
:10107000DBDBDBFF0000DBDBDBDBDBDBDBDBFF0306
:1010800000F8B0303C363636367C0000C3C3C3F3BC
:10109000DBDBDBDBF30000F060607C66666666FC31
:1010A00000007CC606263E2606C67C0000CEDBDBA2
:1010B000DBFBDBDBDBCE00003F6666663E3E666642
:1010C000E70000000000780C7CCCCC760002063CE7
:1010D00060607C6666663C0000000000FC667C6622
:1010E00066FC00000000007E3230303078000000E6
:1010F00000001E36366666FFC3000000007CC6FE98
:10110000C0C67C0000000000D6D67C54D6D60000B5
:101110000000003C660C06663C0000000000C6CEE5
:10112000D6E6C6C60000003838C6CED6E6C6C6002B
:1011300000000000E66C78786CE600000000001EFD
:1011400036666666660000000000C6EEFED6D6C6AD
:101150000000000000C6C6FEC6C6C60000000000B3
:101160007CC6C6C6C67C0000000000FEC6C6C6C659
:10117000C60000000000DC666666667C6000000059
:10118000007CC6C0C0C67C00000000007E5A181853
:10119000183C0000000000C6C6C6C67E06C6000099
:1011A000003C187EDBDBDB7E1800000000C66C38DC
:1011B000386CC60000000000CCCCCCCCCCFE0600C5
:1011C000000000C6C6C67E06060000000000D6D697
:1011D000D6D6D6FE0000000000D6D6D6D6D6FE0360
:1011E00000000000F8B03E33337E0000000000C66F
:1011F000C6F6DEDEF60000000000F0607C6666FCED
:1012000000000000003C661E06663C000000000076
:10121000CEDBFBDBDBCE00000000007ECC7C6CCCA8
:10122000CE006E616E00696E660000407A10F35A5F
:1012300000A0724E18090010A5D4E80000E8764816
:10124000170000E40B54020000CA9A3B000000E1C2
:10125000F505000080969800000040420F00000055
:10126000A08601000000102700000000E803000035
:1012700000006400000000000A00000000000100FF
:10128000000000002C76D888DC674F0823DFC1DF20
:10129000AE59E1B1B796E5E3E453C63AE651997623
:1012A00096E8E6C28426EB898C9B62ED407C6FFC5D
:1012B000EFBC9C9F40F2BAA56FA5F490055A2AF79F
:1012C0005C936B6CF9676DC11BFCE0E40D47FEF5A8
:1012D00020E6B500D0ED902E030094357705008010
:1012E000841E080000204E0A000000C80C3333336F
:1012F000330F986E12831141EF8D2114893BE6550F
:1013000016CFFEE6DB18D1844B381BF77C1D901DF1
:10131000A4BBE424203284725E228100C9F124EC53
:10132000A1E53D2711241FBECFEFD8E0DEBFCDBF22
:1013300012E0A0E0B1E0E4E8F6E602C005900D920C
:10134000A63FB107D9F714E0A6EFB2E001C01D92A5
:10135000A13BB107E1F70E947D0A0C9440330C9445
:101360000000806480937C0085E38A95F1F700009B
:1013700080917A00806480937A0080917A0084FF63
:10138000FCCF80917A00806180937A002091780070
:1013900030917900C90108951092F60288E287B968
:1013A00087ED88B98FE99FE00197F1F700C0000051
:1013B00084E480937C0095E39A95F1F70000809196
:1013C0007A00806480937A0080917A0084FFFCCF59
:1013D00080917A00806180937A008091780090916A
:1013E00079008436910508F0089581E08093F60233
:1013F0008FED88B98FE99FE00197F1F700C00000F9
:1014000082E480937C0095E39A95F1F70000809147
:101410007A00806480937A0080917A0084FFFCCF08
:1014200080917A00806180937A0060917800709159
:10143000790080E090E00E94B62C2FED3FE44DE86B
:101440005EE30E94442D9B01AC0160E070E080E708
:1014500093E40E94B82B0E94852C272F862F922F71
:1014600097FD43C09093F8028093F70284E187B917
:101470008FEE88B98FE99FE00197F1F700C0000077
:1014800083E480937C0095E39A95F1F700008091C6
:101490007A00806480937A0080917A0084FFFCCF88
:1014A00080917A00806180937A00609178007091D9
:1014B000790080E090E00E94B62C20E030E040E827
:1014C0005EE30E94442D20E030E043E952E40E94B4
:1014D000B82B0E94852C272F862F922F97FD09C0AD
:1014E0009093FA028093F9020895909581959F4F09
:1014F000B9CF909581959F4FF3CF5F926F927F9276
:101500008F929F92AF92BF92CF92DF92EF92FF9213
:101510000F931F930F2EF0E06F2EF0E07F2EF0E080
:101520008F2EF0E09F2EF02D58E2F52E07ED14E4FB
:101530004FEDE42E32E4D32E24E1C22E9FEEB92EDD
:1015400083E4A82E552453941092900410928D0495
:1015500060926D0470926E0480926F049092700499
:1015600060926704709268048092690490926A04A1
:1015700010927A0410927B0410927C0410927D04E5
:1015800010928104109282041092830410928404B9
:101590000E94EB0B0E94840D0E94982780918D047D
:1015A0008823C9F51092F602F7B808B98FE99FE0D1
:1015B0000197F1F700C0000010937C0095E39A9525
:1015C000F1F7000080917A00806480937A00809126
:1015D0007A0084FFFCCF80917A00806180937A004A
:1015E000809178009091790084369105E0F08091A7
:1015F000F602813009F495C080910504813071F6BE
:10160000E0910304F091040409951092050480917F
:101610008D04882339F2F8940E94BE1D0E94CA1DD1
:101620000E94E00B91CF5092F602E8B8AFE9BFE01C
:101630001197F1F700C00000D0927C00B5E3BA9595
:10164000F1F7000080917A00806480937A008091A5
:101650007A0084FFFCCF80917A00806180937A00C9
:10166000609178007091790080E090E00E94B62C43
:101670002FED3FE44DE85EE30E94442D9B01AC0159
:1016800060E070E080E793E40E94B82B0E94852C14
:10169000272F862F922F97FD7EC09093F80280937C
:1016A000F702C7B8B8B88FE99FE00197F1F700C01B
:1016B0000000A0927C0095E39A95F1F700008091DC
:1016C0007A00806480937A0080917A0084FFFCCF56
:1016D00080917A00806180937A00609178007091A7
:1016E000790080E090E00E94B62C20E030E040E8F5
:1016F0005EE30E94442D20E030E043E952E40E9482
:10170000B82B0E94852C272F862F922F97FD47C03C
:101710009093FA028093F9028091F602813009F0E9
:101720006BCF70916004772309F438CF2091F702D2
:101730003091F8024091F9025091FA02E09161046F
:10174000F091620460E005C06F5F3696671708F09D
:1017500025CF808190E082179307B4F7828190E0D3
:10176000281739078CF7818190E08417950764F773
:10177000838190E0481759073CF70480F581E02DFC
:1017800009958FEF93ECA9E081509040A040E1F7DC
:1017900000C0000003CF909581959F4F7ECF90951C
:1017A00081959F4FB5CF1092C0001092C10086E086
:1017B0008093C2001092C5008FE58093C400089505
:1017C0001092C0001092C1001092C2001092C50089
:1017D0001092C4000895F8941BB81AB85E98569AEF
:1017E0002B9A239A5F98579A2D98259A2C9A5D9A4E
:1017F000559A2A9A229A81E58CBD81E08DBD14BC50
:1018000093E095BD96E096BD17BC10928000809342
:10181000810087EE8093850086E980938400109292
:101820008700109286001092890010928800109212
:101830008B0010928A0080E880BF10927B0080E4C9
:1018400080937C0087E880937A001092BC007894A3
:1018500008955D9A5F988EBD0DB407FEFDCF6EBDF5
:101860000DB407FEFDCF5F9A08952A9A08952A982D
:1018700008955E9A08955E9808955F9A08955F9816
:1018800008955D9A08955D9808958EBD0DB407FE84
:10189000FDCF08955D985F9808959EBD0DB407FE35
:1018A000FDCF8EBD0DB407FEFDCF08955F9A08955C
:1018B000AF92BF92DF92EF92FF920F931F93DF934D
:1018C000CF9300D0CDB7DEB7E82ED62E89E2A82E72
:1018D0008CE0B82E8FEE90E060E970E029834A83B7
:1018E000F501099588E090E06D2D70E0F50109950E
:1018F00089E090E02981622F70E0F50109950FEAF7
:1019000010E0C8018E1991097C018AE090E0B701CE
:10191000F50109954A81B801641B71098BE090E0DB
:10192000F501099586E090E06D2D70E0F5010995CF
:1019300087E090E0B701F50109950F900F90CF91E6
:10194000DF911F910F91FF90EF90DF90BF90AF90CC
:1019500008950F931F93CF93DF93182F062FC9E29B
:10196000DCE08FEE90E060E970E0FE01099586E032
:1019700090E0602F70E0FE0109956FEA70E0611B56
:10198000710987E090E0FE010995DF91CF911F91E9
:101990000F910895EF92FF920F931F93DF93CF93D0
:1019A0000F92CDB7DEB7082F162F99E2E92E9CE0F3
:1019B000F92E8FEE90E060E970E04983F701099518
:1019C0008FE090E0602F70E0F701099580E190E0F2
:1019D000612F70E0F701099581E190E04981642F62
:1019E00070E0F70109950F90CF91DF911F910F9152
:1019F000FF90EF9008951F93CF93DF93182FC9E2C4
:101A0000DCE08FEE90E060E970E0FE01099581E195
:101A100090E0612F70E0FE010995DF91CF911F9159
:101A20000895CF93DF93C9E2DCE08FEE90E060E9A8
:101A300070E0FE01099580E090E060E070E0FE015A
:101A40000995DF91CF9108951F93CF93DF93182FBE
:101A5000C9E2DCE08FEE90E060E970E0FE010995FC
:101A6000112351F080E090E060E870E0FE010995FC
:101A7000DF91CF911F91089580E090E060E470E0E5
:101A8000FE010995DF91CF911F9108951F93CF9388
:101A9000DF93182FC9E2DCE08FEE90E060EB70E09E
:101AA000FE0109951123B1F089E490E063E070E054
:101AB000FE0109958FEE90E060E970E0FE01099566
:101AC00080E090E060E070E0FE010995DF91CF9149
:101AD0001F91089589E490E062E070E0FE010995AD
:101AE000E9CFCF93DF93682FC9E2DCE084E290E096
:101AF00070E0FE01099580E090E060E070E0FE019A
:101B00000995DF91CF910895CF93DF935F9A5D9A06
:101B10005E988FEF90E7A2E081509040A040E1F7FF
:101B200000C000005E9A8FEF90E7A2E081509040E5
:101B3000A040E1F700C00000C9E2DCE08DEF90E0DA
:101B40006DEF70E0FE0109958DEF90E06DEF70E0B4
:101B5000FE0109958FEF90E7A2E081509040A040F0
:101B6000E1F700C000008FEE90E060E070E0FE0161
:101B700009958EEE90E064E070E0FE0109958BE13E
:101B800090E064E070E0FE0109958EEF90E06EEF6A
:101B900070E0FE0109958EEF90E06EEF70E0FE01BF
:101BA00009958FEE90E060E970E0FE0109958AE406
:101BB00090E064E070E0FE0109958FE790E06FE34C
:101BC00070E0FE0109958EEE90E064E070E0FE01A9
:101BD000099583E490E066E070E0FE010995AFE5C9
:101BE000BDE61197F1F700C000008FEE90E060E9CC
:101BF00070E0FE01099589E090E063E870E0FE0185
:101C0000099588E090E060E070E0FE0109958BE0C6
:101C100090E06FEA70E0FE0109958AE090E060E0F4
:101C200070E0FE01099585E090E060E070E0FE0163
:101C3000099586E090E060E070E0FE01099587E09C
:101C400090E060E070E0FE0109958FEE90E060E0CA
:101C500070E0FE0109958EEE90E06CE070E0FE0110
:101C600009958FEE90E060E970E0FE01099580E053
:101C700090E060E870E0FE0109958FEE90E060EB87
:101C800070E0FE01099589E490E062E070E0FE01F9
:101C900009958FEE90E060E070E0FE0109958FE716
:101CA00090E061E070E0FE01099581EE90E061E86E
:101CB00070E0FE01099582EE90E062E070E0FE01C6
:101CC000099582EE90E066E770E0FE01099581EEED
:101CD00090E063E870E0FE0109958FEF90E7A2E0E5
:101CE00081509040A040E1F700C0000080E890E003
:101CF00061E070E0FE0109958FEE90E060E970E030
:101D0000FE01099580E090E060E070E0FE01099539
:101D10008FEE90E060E970E0FE01099581E090E0CF
:101D200060E470E0FE01099585E090E064E070E019
:101D3000FE0109958FEE90E060E970E0FE010995E3
:101D400088E090E060E070E0FE01099589E090E0B5
:101D500063E870E0FE0109958AE090E06FEA70E0C8
:101D6000FE0109958BE090E060E070E0FE010995CE
:101D700086E090E060E070E0FE01099587E090E089
:101D80006FEA70E0FE010995DF91CF9108955D98AB
:101D90005F989EBD0DB407FEFDCF8EBD0DB407FE4E
:101DA000FDCF5F9A08950F931F93CF93DF938C011C
:101DB000C9E2DCE08FEE90E060E970E0FE01099599
:101DC00088E090E060E070E0FE01099589E090E035
:101DD00063E870E0FE0109958AE090E06FEA70E048
:101DE000FE0109958BE090E060E070E0FE0109954E
:101DF00086E090E060E070E0FE01099587E090E009
:101E00006FEA70E0FE0109955D985F9820EC3AE575
:101E10001EBD0DB407FEFDCF0EBD0DB407FEFDCFF8
:101E200021503040A9F75F9ADF91CF911F910F9118
:101E30000895EF92FF920F931F93DF93CF9300D0FB
:101E4000CDB7DEB7182F062F803B10F4643848F06A
:101E50000F900F90CF91DF911F910F91FF90EF9016
:101E6000089529E2E22E2CE0F22E8FEE90E060E958
:101E700070E049835A83F701099586E090E0602F6E
:101E800070E0F70109956FEA70E0611B710987E066
:101E900090E0F70109955D985F985A815EBD498190
:101EA0000DB407FEFDCF4EBD0DB407FEFDCF5F9A0A
:101EB000CFCF2F923F924F925F926F927F928F92ED
:101EC0009F92AF92BF92CF92DF92EF92FF920F93C9
:101ED0001F93DF93CF9300D0CDB7DEB7F82EE62E59
:101EE000481710F4F42E482F2E1518F48E2DE22EDC
:101EF000282F403B10F42438A8F00F900F90CF917A
:101F0000DF911F910F91FF90EF90DF90CF90BF90E6
:101F1000AF909F908F907F906F905F904F903F9089
:101F20002F90089559E2252E5CE0352E8FEE90E03B
:101F300060E970E029834A83F1010995CE2CDD2404
:101F400088E090E0B601F10109952981422E5524DF
:101F500089E090E0B201F10109956F2C77243FEA06
:101F6000E32EF12C5701A618B7088AE090E0B501DE
:101F7000F10109954A81842E9924B70168197909DC
:101F80008BE090E0F101099586E090E0B601F10167
:101F9000099587E090E0B501F10109955D985F989A
:101FA0000894411C511C4C185D080894811C911C1C
:101FB00086189708489CC001499C900D589C900D2C
:101FC0001124009751F01EBD0DB407FEFDCF0EBDCC
:101FD0000DB407FEFDCF0197B1F75F9A8ECF2F9218
:101FE0003F924F925F926F927F928F929F92AF92A9
:101FF000BF92CF92DF92EF92FF920F931F93DF93E6
:10200000CF9300D000D000D0CDB7DEB7F82EE62EAB
:10201000742E622E1801841709F4F5C0621709F4B2
:10202000F2C090E09A838983242F30E0281B390B7B
:10203000E62FF0E0FC83EB83862C99248E1A9F0A0E
:1020400037FD11C1AA24A39497FC14C1BB24B394F7
:102050006901CC0CDD1C8401000F111FE9E24E2E3A
:10206000ECE05E2E8FEE90E060E970E02D833E8321
:10207000F201099588E090E060E070E0F2010995D6
:1020800089E090E063E870E0F20109958AE090E071
:102090006FEA70E0F20109958BE090E060E070E09B
:1020A000F201099586E090E060E070E0F2010995A8
:1020B00087E090E06FEA70E0F20109952D813E81A2
:1020C000FF2DF03B20F48E2D843808F4A4C0821636
:1020D00093060CF05BC0C801821B930B9C01FA0CA9
:1020E0007FEA872E912C07C0FA0C8F2D8A1978165B
:1020F000A1F1200F311F37FD03C0EB0C2C193D0956
:102100009F2D903B88F7EE2DE43870F78FEE90E02E
:1021100060E970E02D833E83F201099586E090E04E
:102120006E2D70E0F2010995B4016F19710987E015
:1021300090E0F20109955D985F983EBC3E812D814B
:102140000DB407FEFDCF2EBC0DB407FEFDCF5F9A88
:10215000FA0C8F2D8A19781661F626960FB6F89428
:10216000DEBF0FBECDBFCF91DF911F910F91FF90CA
:10217000EF90DF90CF90BF90AF909F908F907F9027
:102180006F905F904F903F902F900895960128197F
:102190003909EB0C6FEA862E912C07C0EB0C8E2DC3
:1021A0008B196816D1F22C0D3D1D37FD03C0FA0CBA
:1021B000201B310BFF2DF03B88F78E2D843870F7F4
:1021C0008FEE90E060E970E02D833E83F201099587
:1021D00086E090E06E2D70E0F2010995B4016F1970
:1021E000710987E090E0F20109955D985F983EBC27
:1021F0003E812D810DB407FEFDCF2EBC0DB407FE30
:10220000FDCF5F9ACBCF8F2D6E2D472D262D8101CF
:102210000E94590FA2CF8FEE90E060E970E0F201CA
:10222000099586E090E06B817C81F20109956FEA67
:1022300070E0E981FA816E1B7F0B87E090E0F2018C
:1022400009955D985F983EBC3E812D810DB407FED7
:10225000FDCF2EBC0DB407FEFDCF5F9A821693060C
:102260000CF094CF38CF309521953F4FAA24AA94F3
:1022700097FEECCE9094819491089394BB24BA94E9
:10228000E7CECF92DF92EF92FF920F931F93CF93FF
:10229000DF93D82EF62EE42EC22E4D2D0E94590F1C
:1022A0008D2D6C2D4E2D2C2D0E94590F8E2D6F2DA6
:1022B0004E2D2C2D0E94590F8D2D6F2D4E2D2F2D13
:1022C0000E94590FDF91CF911F910F91FF90EF90D6
:1022D000DF90CF9008952F923F924F925F926F922E
:1022E0007F928F929F92AF92BF92CF92DF92EF92A6
:1022F000FF920F931F93DF93CF9300D000D000D0B5
:10230000CDB7DEB7882ED62E29833A83E42EFF245C
:10231000442755274E195F0919E2412E1CE0512E22
:102320008FEE90E060E970E04D835E83F2010995E5
:1023300088E090E060E070E0F201099589E090E0CB
:1023400063E870E0F20109958AE090E06FEA70E0DE
:10235000F20109958BE090E060E070E0F2010995F0
:1023600086E090E060E070E0F201099587E090E09F
:102370006FEA70E0F20109957D2C6D2CA82CB82C29
:1023800000E010E0BFEA2B2E312C5E814D814BC066
:10239000382D3C19303B20F4872D843808F45AC17D
:1023A000203B20F4862D843808F404C1303B20F40F
:1023B000862D843808F427C19C2C9D0C8A2D803BE7
:1023C00020F4E92DE43808F460C0EB2DE03B20F464
:1023D000F92DF43808F47EC0FD2DFC19CF2E8A2D7E
:1023E000803B18F4F43808F49AC08B2D803B20F41D
:1023F000EC2DE43808F4B9C0400F511F0F5F1F4F98
:10240000400F511F57FD07C00894E108F1084E190D
:102410005F094E195F09BA94A3946A947394E01605
:10242000F1060CF441C1CE2C2E2D280D203B08F0D6
:10243000AFCF872D843808F0ABCF8FEE90E060E906
:1024400070E02B834D835E83F201099586E090E076
:10245000672D70E0F20109952B81B101621B7109B2
:1024600087E090E0F20109955D985F98EA81EEBD02
:102470005E814D812B810DB407FEFDCFF981FEBD3C
:102480000DB407FEFDCF5F9A83CF8FEE90E060E939
:1024900070E04D835E83F201099586E090E0692D3E
:1024A00070E0F2010995B1016A19710987E090E0C5
:1024B000F20109955D985F98FA81FEBD5E814D81BC
:1024C0000DB407FEFDCF89818EBD0DB407FEFDCF93
:1024D0005F9A7BCF8FEE90E060E970E04D835E8382
:1024E000F201099586E090E0692D70E0F20109950E
:1024F000B1016B19710987E090E0F20109955D98CF
:102500005F988A818EBD5E814D810DB407FEFDCF3F
:10251000E981EEBD0DB407FEFDCF5F9A5DCF8FEE72
:1025200090E060E970E04D835E83F201099586E0FA
:1025300090E06C2D70E0F201099591012A193109A2
:1025400087E090E0B901F20109955D985F98EA8112
:10255000EEBD5E814D810DB407FEFDCFF981FEBD5C
:102560000DB407FEFDCF5F9A40CF8FEE90E060E99B
:1025700070E04D835E83F201099586E090E06C2D5A
:1025800070E0F2010995B1016B19710987E090E0E3
:10259000F20109955D985F98FA81FEBD5E814D81DB
:1025A0000DB407FEFDCF89818EBD0DB407FEFDCFB2
:1025B0005F9A22CF8FEE90E060E970E02B833C833E
:1025C0004D835E83F201099586E090E0662D70E010
:1025D000F20109952B81B101621B710987E090E03E
:1025E000F20109955D985F98EA81EEBD5E814D81AB
:1025F0003C810DB407FEFDCFF981FEBD0DB407FE91
:10260000FDCF5F9AD3CE8FEE90E060E970E03C831F
:102610004D835E83F201099586E090E0662D70E0BF
:10262000F20109953C81B101631B710987E090E0DB
:10263000F20109955D985F98EA81EEBD5E814D815A
:102640000DB407FEFDCFF981FEBD0DB407FEFDCF31
:102650005F9AB2CE8FEE90E060E970E02B833C830E
:102660004D835E83F201099586E090E0672D70E06E
:10267000F20109953C81B101631B710987E090E08B
:10268000F20109955D985F98EA81EEBD5E814D810A
:102690003C812B810DB407FEFDCFF981FEBD0DB449
:1026A00007FEFDCF5F9A7CCE26960FB6F894DEBF6C
:1026B0000FBECDBFCF91DF911F910F91FF90EF9093
:1026C000DF90CF90BF90AF909F908F907F906F9052
:1026D0005F904F903F902F9008954F925F926F922E
:1026E0007F928F929F92AF92BF92CF92DF92EF92A2
:1026F000FF920F931F93CF93DF93C82ED62E5901CD
:10270000442E5524EE24FF24E418F508C9E2DCE049
:102710008FEE90E060E970E0FE01099588E090E0BE
:1027200060E070E0FE01099589E090E063E870E008
:10273000FE0109958AE090E06FEA70E0FE010995DC
:102740008BE090E060E070E0FE01099586E090E0AB
:1027500060E070E0FE01099587E090E06FEA70E0CC
:10276000FE010995C0E0D0E07C2C7418642C6C0C40
:102770009C2E2C2F2D0D872D622F462D85010E941A
:10278000EF0F2D2D2C1B872D622F462D0E94EF0F52
:102790007C2C7C1A9C0C242D2D0D872D622F492D0D
:1027A0000E94EF0F2D2D2419872D622F492D0E9495
:1027B000EF0FEC0EFD1E2196EC0EFD1EF7FC07C080
:1027C000089441085108E418F508E418F5084C1677
:1027D0005D0654F6DF91CF911F910F91FF90EF901E
:1027E000DF90CF90BF90AF909F908F907F906F9031
:1027F0005F904F900895CF92DF92EF92FF920F93E8
:102800001F93DF93CF9300D0CDB7DEB7922F3BE07D
:10281000439F6001112442E257E0C40ED51E2230CE
:10282000A8F0522F550F550F550F580F513B08F474
:102830003AC051EB852F0F900F90CF91DF911F91F0
:102840000F91FF90EF90DF90CF900895582F585F31
:10285000513B78F7482F495F262F265F5A830E9405
:10286000580C5D985F9820E030E05A81F601E20F45
:10287000F31FE49188E090E040E8642F6E2309F4B0
:1028800056C01EBD0DB407FEFDCF0EBD0DB407FE34
:10289000FDCF4695019789F72F5F3F4F2B303105CC
:1028A00029F75F9AC7CF452F4150262F2150939F7C
:1028B000302D1124230F5A8399830E94580C5D9860
:1028C0005F9820E030E099815A81F601E20FF31F12
:1028D000E491F92F68E070E040E8842F8E23B9F08E
:1028E000892F1EBD0DB407FEFDCF0EBD0DB407FE32
:1028F000FDCF8150B1F746956150704071F7F150AE
:1029000049F72F5F3F4F2B303105F9F6CACF892F9A
:10291000FEBC0DB407FEFDCFEEBC0DB407FEFDCF2F
:102920008150B1F7469561507040B9F6E8CFFEBCD2
:102930000DB407FEFDCFEEBC0DB407FEFDCFA9CF51
:102940008F929F92AF92BF92CF92DF92EF92FF92BF
:102950000F931F93CF93DF93862E922E680157011A
:10296000E42EE7017E01F52EE70108C0682D292D30
:10297000860175010E94FB13813B18F449914423A1
:10298000A9F7DF91CF911F910F91FF90EF90DF900A
:10299000CF90BF90AF909F908F9008958F929F920D
:1029A000AF92BF92CF92DF92EF92FF920F931F935D
:1029B000CF93DF93862EFA01922E5801670144913E
:1029C000442379F0EF0104C0FE014491442349F00F
:1029D0002196682D292D850176010E94FB13813BEC
:1029E00098F3DF91CF911F910F91FF90EF90DF90BF
:1029F000CF90BF90AF909F908F9008952F923F926D
:102A00004F925F926F927F928F929F92AF92BF92FE
:102A1000CF92DF92EF92FF920F931F93DF93CF93AA
:102A200000D000D00F92CDB7DEB7882ED62E5D83B2
:102A30004C83622E28015701282E2A94822F880F5A
:102A4000782E770C770C780E720E972C960E80E00D
:102A5000422D292D87010E94590F80EB90E08819A3
:102A6000910997FDB4C0959587959595879595950E
:102A700087958A833C80ED80E982C82CEC81FD81BA
:102A80009081992309F446C09F012F5F3F4F3D83FA
:102A90002C839A3009F464C0903209F45BC0903200
:102AA00068F38C2D6D2D492F262D820175019B8396
:102AB0000E94FB139B81813B08F466C0903209F4AD
:102AC0004FC08C8183193A81381708F063C08C2D70
:102AD0006D2D4FEA292D85019B830E94590F92E0AD
:102AE000D92ED90C9D2C970C80E06D2D422D292DCF
:102AF0000E94590F882D6D2D9B81492F262D820113
:102B000075010E94FB13C82EEC81FD8190819923F1
:102B100009F0BACF8C2D6D2D4FEA292D85010E9429
:102B2000590F8C2D0F900F900F900F900F90CF9109
:102B3000DF911F910F91FF90EF90DF90CF90BF90AA
:102B4000AF909F908F907F906F905F904F903F904D
:102B50002F900895C814D1F03C80FD81F983A1CF56
:102B60008C2D6D2D4FEA292D85010E94590F22E0F1
:102B7000D22ED90C9D2C970C80E06D2D422D292D45
:102B80000E94590FC82C7ACFC82E78CF3C808D81F7
:102B9000898374CF880F880F880FC81A8C2D6D2DEC
:102BA0004FEA292D85010E94590F82E0D82ED90CB9
:102BB0009D2C970C80E06D2D422D292D0E94590FE0
:102BC0008981432D582F5D834C83C82C57CF07969E
:102BD0004ACF2F923F924F925F926F927F928F9245
:102BE0009F92AF92BF92CF92DF92EF92FF920F939C
:102BF0001F93DF93CF9300D000D000D0CDB7DEB7C6
:102C0000882ED62E5A834983622E28015701282EFA
:102C10002A94822F880F782E770C770C780E720EFC
:102C2000972C960E80E0422D292D87010E94590F86
:102C300080EB90E08819910997FDC2C09595879522
:102C400095958795959587958B83E981FA819491E0
:102C5000992309F4CBC03196FE83ED833980FA8144
:102C6000F983C82C0DC09032A8F4ED81FE819F013C
:102C70002F5F3F4F3E832D839491992309F45CC0CD
:102C80009A30E1F1903279F7C81409F478C03D80A8
:102C90003E8139838C2D6D2D492F262D82017501A2
:102CA0009C830E94FB139C81813B08F466C0903298
:102CB00009F488C08D8183193B81381708F063C0FF
:102CC0008C2D6D2D4FEA292D85019C830E94590F73
:102CD00052E0D52ED90C9D2C970C80E06D2D422D05
:102CE000292D0E94590F882D6D2D9C81492F262D4D
:102CF000820175010E94FB13C82EB7CF8C2D6D2D5C
:102D00004FEA292D85010E94590F72E0D72ED90C68
:102D10009D2C970C80E06D2D422D292D0E94590F7E
:102D2000ED81FE819F012F5F3F4F3E832D83949164
:102D3000C82C992309F0A4CF8C2D6D2D4FEA292D95
:102D400085010E94590F8C2D26960FB6F894DEBF90
:102D50000FBECDBFCF91DF911F910F91FF90EF90EC
:102D6000DF90CF90BF90AF909F908F907F906F90AB
:102D70005F904F903F902F900895C82E76CF3D8062
:102D80008E81898372CF880F880F880FC81A8C2D87
:102D90006D2D4FEA292D85010E94590F42E0D42E56
:102DA000D90C9D2C970C80E06D2D422D292D0E9471
:102DB000590F8981432D582F5E834D83C82C55CFE1
:102DC00007963CCF8C2D6D2D4FEA292D85010E9451
:102DD000590F62E0D62ED90C9D2C970C80E06D2DFA
:102DE000422D292D0E94590FC82C3FCFC82CA4CFAB
:102DF0001F920F920FB60F9211242F938F939F93D0
:102E0000EF93FF938091C0009091C6008C7159F5AB
:102E10008091FF03813009F44DC0813008F441C036
:102E2000823009F454C080910004882329F48091F1
:102E3000FF03833009F453C02091FB02809100040A
:102E4000281709F45DC08091FE02890F8093FE026D
:102E50008091FB02E82FF0E0E150FD4F90838F5FFF
:102E60008093FB0205C083E08093FE031092C100B3
:102E70008091FE03823068F081E080938D04FF91A1
:102E8000EF919F918F912F910F900FBE0F901F90F8
:102E9000189580916B0490916C048536910560F7CC
:102EA000EECF9093FE02892F807C803801F1109242
:102EB000FF03DECF8091FE02890F8093FE02913FD7
:102EC000B1F78091FF038F5F8093FF03D1CF809193
:102ED000FE02890F8093FE02903149F7F2CF909362
:102EE00000048091FE02890F8093FE02C1CF9F7380
:102EF000909300048091FF038F5F8093FF03B8CF0E
:102F00008091FE02981731F082E08093FE031092C8
:102F1000C100AECF81E08093FE031092C100A8CF24
:102F20001F920F920FB60F9211248F939F93EF93DE
:102F3000FF939091FB02809100049817E8F01092A3
:102F4000FB02109200041092FE031092FF031092F5
:102F50006C0410926B0484E690E000000197E9F79E
:102F600080E98093C100FF91EF919F918F910F9025
:102F70000FBE0F901F9018958091FB02E82FF0E094
:102F8000E150FD4F90819093C6008F5F8093FB02CC
:102F9000EACFCF93DF93262F21502F3308F045C07F
:102FA000362F30683093FF023091FF023093FE02DB
:102FB00030E130930003409100033091FE02340F62
:102FC0003093FE0231EF30930103409101033091C1
:102FD000FE02340F3093FE02E82FF92F30E02C5F11
:102FE0003F4F83E090E0DF014191EC01C150DD4FA4
:102FF00048834091FE025C91450F4093FE0201968A
:103000008217930781F7E62FF0E08091FE02EE5FD2
:10301000FC4F80831092FB026C5F6093000488E297
:103020008093C100DF91CF91089530E83093FF0283
:103030003091FF023093FE0230E130930003409163
:1030400000033091FE02340F3093FE0231EF3093D3
:103050000103409101033091FE02340F3093FE02D0
:1030600060930203409102033091FE02340F3093CB
:10307000FE02662349F1E82FF92F30E02B5F3F4F26
:1030800084E090E0DF014191EC01C150DD4F4883C5
:103090004091FE025C91450F4093FE02019682171B
:1030A000930781F7E62FF0E08091FE02ED5FFC4F81
:1030B00080831092FB026B5F6093000488E2809330
:1030C000C100DF91CF910895E0E0EDCFEF92FF9244
:1030D0000F931F931092FE038EE090E09093FD02F9
:1030E0008093FC028FEE9BE790930204809301048F
:1030F0008EE090E00E94D30E009101041091020432
:10310000E090FC02F090FD0284E162E340E051E0D7
:1031100022E00E94A0140E94D30B8FEF99E6A8E151
:1031200081509040A040E1F700C0000089E391E0A9
:1031300061E00E94C9178FEF93ECA9E081509040A5
:10314000A040E1F700C000008091FE03823009F446
:10315000D2C1833009F4BBC1813009F480C18091B0
:10316000FC029091FD020E94D30EE090FC02F090D0
:10317000FD0283E262E349E051E022E000E010EF6B
:103180000E94A0140E94E00B8FEF97EAA1E6815005
:103190009040A040E1F700C000008091FC029091B7
:1031A000FD020E94D30E0091010410910204E090F0
:1031B000FC02F090FD0284E162E340E051E022E095
:1031C0000E94A0140E94D30B8FEF99E6A8E18150D2
:1031D0009040A040E1F700C0000089E391E061E089
:1031E0000E94C9178FEF93ECA9E081509040A04056
:1031F000E1F700C000008091FE03823009F4A3C112
:10320000833009F48CC1813009F441C18091FC0202
:103210009091FD020E94D30EE090FC02F090FD021E
:1032200083E262E349E051E022E000E010EF0E9417
:10323000A0140E94E00B8FEF97EAA1E68150904026
:10324000A040E1F700C000008091FC029091FD02D7
:103250000E94D30E0091010410910204E090FC0240
:10326000F090FD0284E162E340E051E022E00E9440
:10327000A0140E94D30B8FEF99E6A8E181509040F3
:10328000A040E1F700C0000089E391E061E00E9406
:10329000C9178FEF93ECA9E081509040A040E1F76F
:1032A00000C000008091FE03823009F460C18330C9
:1032B00009F48AC1813009F46EC18091FC029091B9
:1032C000FD020E94D30EE090FC02F090FD0283E22A
:1032D00062E349E051E022E000E010EF0E94A01418
:1032E0000E94E00B8FEF97EAA1E681509040A0404A
:1032F000E1F700C000008091FC029091FD020E9465
:10330000D30E0091010410910204E090FC02F090B1
:10331000FD0284E162E340E051E022E00E94A0145B
:103320000E94D30B8FEF99E6A8E181509040A04016
:10333000E1F700C0000089E391E061E00E94C91755
:103340008FEF93ECA9E081509040A040E1F700C0DE
:1033500000008091FE03823009F477C1833009F4C4
:1033600060C1813009F444C18091FC029091FD025A
:103370000E94D30EE090FC02F090FD0283E262E333
:1033800049E051E022E000E010EF0E94A0140E940A
:10339000E00B8FEF97EAA1E681509040A040E1F763
:1033A00000C000008091FC029091FD020E94D30EAB
:1033B0000091010410910204E090FC02F090FD02E3
:1033C00084E162E340E051E022E00E94A0140E9408
:1033D000D30B8FEF99E6A8E181509040A040E1F730
:1033E00000C0000089E391E061E00E94C9178FEFFF
:1033F00093ECA9E081509040A040E1F700C00000AC
:103400008091FE03823009F442C1833009F46CC11B
:10341000813009F450C18091FC029091FD020E941C
:10342000D30EE090FC02F090FD0283E262E349E0FB
:1034300051E022E000E010EF0E94A0140E94E00B97
:103440008FEF97EAA1E681509040A040E1F700C0DD
:10345000000080E01F910F91FF90EF900895809100
:10346000FC029091FD020E94D30E8091FF02813CEC
:10347000C9F0E090FC02F090FD0284E162E345E2D5
:1034800051E022E000E010EF0E94A0147BCE80917A
:10349000FC029091FD020E94D30E8091FF02813CBC
:1034A00009F0E7C00091010410910204E090FC02D1
:1034B000F090FD0284E162E34FE251E022E00E94DD
:1034C000A01481E01F910F91FF90EF9008958091DB
:1034D000FC029091FD020E94D30EE090FC02F0905D
:1034E000FD0284E162E341E151E022E000E010EFFF
:1034F0000E94A01447CE8091FC029091FD020E9490
:10350000D30EE090FC02F090FD0284E162E34BE117
:1035100051E022E000E010EF0E94A01433CE809131
:10352000FC029091FD020E94D30EE090FC02F0900C
:10353000FD0284E162E341E151E022E000E010EFAE
:103540000E94A01476CE8091FC029091FD020E9410
:10355000D30EE090FC02F090FD0284E162E34BE1C7
:1035600051E022E000E010EF0E94A01462CE8091B2
:10357000FC029091FD020E94D30EE090FC02F090BC
:10358000FD0284E162E34BE151E022E000E010EF54
:103590000E94A014A5CE8091FC029091FD020E9491
:1035A000D30E8091FF02813C09F47CCFE090FC02B5
:1035B000F090FD0284E162E345E251E022E000E0A8
:1035C00010EF0E94A0148CCE8091FC029091FD021D
:1035D0000E94D30EE090FC02F090FD0284E162E3D1
:1035E00041E151E022E000E010EF0E94A01478CE0B
:1035F0008091FC029091FD020E94D30E8091FF0207
:10360000813C09F44FCFE090FC02F090FD0284E190
:1036100062E345E251E022E000E010EF0E94A014D6
:10362000B6CE8091FC029091FD020E94D30EE090F4
:10363000FC02F090FD0284E162E341E151E022E00E
:1036400000E010EF0E94A014A2CE8091FC029091A5
:10365000FD020E94D30EE090FC02F090FD0284E196
:1036600062E34BE151E022E000E010EF0E94A01481
:103670008ECEE090FC02F090FD0284E162E345E230
:1036800051E022E000E010EF0E94A014D2CD809122
:10369000FC029091FD020E94D30EE090FC02F0909B
:1036A000FD0284E162E34BE151E022E000E010EF33
:1036B0000E94A014C3CE8091FC029091FD020E9452
:1036C000D30E8091FF02813C09F4ECCEE090FC0225
:1036D000F090FD0284E162E345E251E022E000E087
:1036E00010EF0E94A014AACE8091FC029091FD02DE
:1036F0000E94D30EE090FC02F090FD0284E162E3B0
:1037000041E151E022E000E010EF0E94A01496CECB
:103710008AE391E062E00E94C91708956F927F9258
:103720008F929F92AF92BF92CF92DF92EF92FF92D1
:103730000F931F936091130370E080E090E00E946C
:10374000B62C20E030E040EA51E40E941D2C26E631
:1037500036E646EA50E40E94B92B9B01AC01209367
:1037600085043093860440938704509388048091A5
:10377000090388528093710480910B0380938E0417
:1037800080918E04882309F4E3C090910C0388E2B1
:10379000989FC00111249093800480937F048091AE
:1037A000120380938F04F894E0907A04F0907B04E5
:1037B00000917C0410917D04809181049091820499
:1037C000A0918304B0918404E81AF90A0A0B1B0B38
:1037D00080917A0490917B04A0917C04B0917D0447
:1037E0008093810490938204A0938304B093840413
:1037F000789460918F04A0906704B0906804C090A2
:103800006904D0906A0470E080E090E0A80197011C
:103810000E942D310E94B62CA60195010E94B92B61
:103820009B01AC01209367043093680440936904C2
:1038300050936A0480918F04882309F094C090917A
:103840001E0380911D03792F60E0680F711D88278A
:1038500077FD8095982F0E94B82C20E030E048E456
:1038600052E40E941D2C0E94852C77FDD6C088272B
:1038700077FD8095982F0E94B82C609389047093EF
:103880008A0480938B0490938C0490911E03809102
:103890001D03A0906D04B0906E04C0906F04D09092
:1038A0007004792F60E0680F711D882777FD80957F
:1038B000982FA80197010E942D3122E330E040E0CB
:1038C00050E00E944C31CA01B9010E94B62C0E94FE
:1038D000852C882777FD8095982F0E94B82CA6010B
:1038E00095010E94B92B9B01AC0120936D0430938C
:1038F0006E0440936F04509370049091180380916C
:103900001703792F60E0680F711D882777FD809578
:10391000982F0E94B82C20E030E04AEF52E40E9439
:103920001D2C9B01AC0120937604309377044093C7
:103930007804509379041F910F91FF90EF90DF90DE
:10394000CF90BF90AF909F908F907F906F90089591
:1039500090910D038AE0989FC001112490938004F8
:1039600080937F041CCF9091200380911F03792FB7
:1039700060E0680F711D882777FD8095982F0E9461
:10398000B82C20E030E040E05CE30E94442D0E942F
:10399000852C77FD46C0882777FD8095982F0E945B
:1039A000B82C6093890470938A0480938B0490935D
:1039B0008C04A0902003D0901F0360918F0460902E
:1039C0006D0470906E0480906F049090700470E0AD
:1039D00080E090E0A80197010E942D313A2D20E06F
:1039E0002D0D311D442737FD4095542F0E942D3158
:1039F00020E032E340E050E00E944C31CA01B901BE
:103A00000E94B62C0E94852C882777FD8095982FE0
:103A10000E94B82CA401930164CF709561957F4FEB
:103A200026CF709561957F4FB6CF85E491E062E037
:103A30000E94C91708951F936091030315E0619FC9
:103A4000B0011124882777FD8095982F0E94B82C0B
:103A500020E030E040E85BE30E94442D9B01AC0194
:103A6000209372043093730440937404509375044C
:103A700060910503619FB0011124882777FD80952F
:103A8000982F0E94B82C20E030E040E85BE30E94D1
:103A9000442D9B01AC012093630430936404409354
:103AA0006504509366041F9108958CE391E064E0EF
:103AB0000E94C9170895089580E491E063E00E9490
:103AC000C917089508951F920F920FB60F921124EF
:103AD0008F939F93AF93BF9386E086BD80916B04D5
:103AE00090916C04019690936C0480936B04809188
:103AF0000704882349F090917E049F5F90937E0491
:103B000090917E04891749F0BF91AF919F918F9159
:103B10000F900FBE0F901F90189510927E0481E0B9
:103B20008093050480917A0490917B04A0917C0499
:103B3000B0917D040196A11DB11D80937A049093EC
:103B40007B04A0937C04B0937D04DECF1F920F9280
:103B50000FB60F9211248F9387EE8093850086E92C
:103B6000809384008F910F900FBE0F901F90189537
:103B7000EEE6F0E08081816080830895EEE6F0E07B
:103B800080818E7F80830895EFE6F0E08081816000
:103B900080830895EFE6F0E080818E7F8083089532
:103BA0000895AF92BF92CF92DF92EF92FF920F9360
:103BB0001F93CF93DF938FEE9BE790930204809344
:103BC00001049093090480930804809106048823DB
:103BD00009F5E090FC02F090FD0284EA6CE144E11A
:103BE00052E021E00FEE1BE70E94A0141092FE03AA
:103BF0000E94881B809106048F5F80930604DF91EA
:103C0000CF911F910F91FF90EF90DF90CF90BF90D9
:103C1000AF900895813019F010920604F0CF809192
:103C2000FE03882371F4E090FC02F090FD0284EA28
:103C30006CE144E152E021E000E010E70E94A014B2
:103C4000DECF8130E1F6E090FC02F090FD0284EAE4
:103C50006CE144E152E021E000EC13E00E94A0148A
:103C60000E948E1B60916D0470916E0480916F04B0
:103C700090917004A0906704B0906804C0906904AB
:103C8000D0906A042DB73EB72C5030400FB6F89450
:103C90003EBF0FBE2DBFEDB6FEB60894E11CF11C71
:103CA000C1E9D4E0ADB7BEB71296DC93CE931197BD
:103CB00027E431E0F7013383228320E038EC4FEA38
:103CC00058E40E941D2CD70114966D937D938D931B
:103CD0009C931797C601B50120E038EC4FEA58E4F1
:103CE0000E941D2CF70160877187828793870E944D
:103CF000BF322DB73EB7245F3F4F0FB6F8943EBF9B
:103D00000FBE2DBFE090FC02F090FD0282E06EE558
:103D1000AE0121E000EC15EF0E94A01420918F0469
:103D200000D000D000D0EDB7FEB73196ADB7BEB72A
:103D30001296DC93CE9311978BE591E09383828367
:103D4000248315820E94BF32EDB7FEB736960FB6B8
:103D5000F894FEBF0FBEEDBFE090FC02F090FD02B4
:103D600084E36CE1AE0122E000EC15E00E94A014B7
:103D700080915F04823009F450C3833008F03DC164
:103D8000882309F06CC28091850490918604A091EB
:103D90008704B09188042DB73EB7285030400FB645
:103DA000F8943EBF0FBE2DBF4DB75EB74F5F5F4F5C
:103DB000EDB7FEB7D283C18323E631E0FA01338346
:103DC000228384839583A683B7830E94BF322DB755
:103DD0003EB7285F3F4F0FB6F8943EBF0FBE2DBFD2
:103DE0000091010410910204E090FC02F090FD02A9
:103DF00083E066E0AE0121E00E94A014809171048E
:103E000087FDDDC52091710400D000D000D0EDB752
:103E1000FEB73196ADB7BEB71296DC93CE9311972D
:103E200082E791E093838283248315820E94BF32CC
:103E3000EDB7FEB736960FB6F894FEBF0FBEEDBFD6
:103E40000091010410910204E090FC02F090FD0248
:103E500080E466E041E954E021E00E94A014209152
:103E60008E0400D000D000D0EDB7FEB73196ADB7CC
:103E7000BEB71296DC93CE93119789E791E09383B6
:103E80008283248315820E94BF32EDB7FEB7369637
:103E90000FB6F894FEBF0FBEEDBF00910104109164
:103EA0000204E090FC02F090FD028AE866E0AE01B8
:103EB00021E00E94A01480917F049091800400D0A2
:103EC00000D000D0EDB7FEB73196ADB7BEB71296B1
:103ED000DC93CE9311972EE731E0338322839583D1
:103EE00084830E94BF32EDB7FEB736960FB6F894C2
:103EF000FEBF0FBEEDBF0091010410910204E090DF
:103F0000FC02F090FD0284E166E3AE0123E00E9432
:103F1000A0148091760490917704A0917804B091D8
:103F200079042DB73EB7285030400FB6F8943EBF05
:103F30000FBE2DBF4DB75EB74F5F5F4FEDB7FEB7FA
:103F4000D283C18322E831E0FA0133832283848360
:103F50009583A683B7830E94BF322DB73EB7285FF3
:103F60003F4F0FB6F8943EBF0FBE2DBF0091010426
:103F700010910204E090FC02F090FD0280E160E705
:103F8000AE0121E00E94A0148091890490918A04DE
:103F9000A0918B04B0918C04EDB7FEB738970FB6A3
:103FA000F894FEBF0FBEEDBF4DB75EB74F5F5F4FDA
:103FB000D283C1832AE831E0FA01338322838483E8
:103FC0009583A683B7830E94BF322DB73EB7285F83
:103FD0003F4F0FB6F8943EBF0FBE2DBF00910104B6
:103FE00010910204E090FC02F090FD0288E660E788
:103FF000AE0121E00E94A0140FCE843009F483C3E7
:10400000843008F4D4C2853009F006CE809185044E
:1040100090918604A0918704B0918804EDB7FEB713
:1040200038970FB6F894FEBF0FBEEDBF4DB75EB721
:104030004F5F5F4FD283C18323E631E0FA013383C0
:10404000228384839583A683B7830E94BF322DB7D2
:104050003EB7285F3F4F0FB6F8943EBF0FBE2DBF4F
:104060000091010410910204E090FC02F090FD0226
:1040700083E066E0AE0121E00E94A014809171040B
:1040800087FDC0C42091710400D000D000D0EDB7EE
:10409000FEB73196ADB7BEB71296DC93CE931197AB
:1040A00082E791E093838283248315820E94BF324A
:1040B000EDB7FEB736960FB6F894FEBF0FBEEDBF54
:1040C0000091010410910204E090FC02F090FD02C6
:1040D00080E466E041E954E021E00E94A0142091D0
:1040E0008E0400D000D000D0EDB7FEB73196ADB74A
:1040F000BEB71296DC93CE93119789E791E0938334
:104100008283248315820E94BF32EDB7FEB73696B4
:104110000FB6F894FEBF0FBEEDBF009101041091E1
:104120000204E090FC02F090FD028AE866E0AE0135
:1041300021E00E94A0148091890490918A04A091AA
:104140008B04B0918C042DB73EB7285030400FB689
:10415000F8943EBF0FBE2DBF4DB75EB74F5F5F4FA8
:10416000EDB7FEB7D283C1832AE831E0FA01338389
:10417000228384839583A683B7830E94BF322DB7A1
:104180003EB7285F3F4F0FB6F8943EBF0FBE2DBF1E
:104190000091010410910204E090FC02F090FD02F5
:1041A00084E166E3AE0123E00E94A01480917604CE
:1041B00090917704A0917804B0917904EDB7FEB79F
:1041C00038970FB6F894FEBF0FBEEDBF4DB75EB780
:1041D0004F5F5F4FD283C18322E831E0FA0133831E
:1041E000228384839583A683B7830E94BF322DB731
:1041F0003EB7285F3F4F0FB6F8943EBF0FBE2DBFAE
:104200000091010410910204E090FC02F090FD0284
:1042100080E160E7AE0121E00E94A01480917F045C
:104220009091800400D000D000D0EDB7FEB7319659
:10423000ADB7BEB71296DC93CE9311972EE731E05F
:1042400033832283958384830E94BF32EDB7FEB708
:1042500036960FB6F894FEBF0FBEEDBFBFCE8130CD
:1042600009F0DACC80917F049091800400D000D0D6
:1042700000D0EDB7FEB73196ADB7BEB71296DC935E
:10428000CE9311972EE731E0338322839583848385
:104290000E94BF32EDB7FEB736960FB6F894FEBF58
:1042A0000FBEEDBF0091010410910204E090FC02EA
:1042B000F090FD0283E066E0AE0121E00E94A014D0
:1042C0008091710487FD35C32091710400D000D026
:1042D00000D0EDB7FEB73196ADB7BEB71296DC93FE
:1042E000CE93119782E791E0938382832483158292
:1042F0000E94BF32EDB7FEB736960FB6F894FEBFF8
:104300000FBEEDBF0091010410910204E090FC0289
:10431000F090FD0280E466E041E954E021E00E9473
:10432000A01420918E0400D000D000D0EDB7FEB7CD
:104330003196ADB7BEB71296DC93CE93119789E74D
:1043400091E093838283248315820E94BF32EDB76C
:10435000FEB736960FB6F894FEBF0FBEEDBF0091C4
:10436000010410910204E090FC02F090FD028AE842
:1043700066E0AE0121E00E94A01480918504909136
:104380008604A0918704B09188042DB73EB72850C9
:1043900030400FB6F8943EBF0FBE2DBF4DB75EB78D
:1043A0004F5F5F4FEDB7FEB7D283C18323E631E0A5
:1043B000FA013383228384839583A683B7830E9483
:1043C000BF322DB73EB7285F3F4F0FB6F8943EBFC0
:1043D0000FBE2DBF0091010410910204E090FC0279
:1043E000F090FD0284E166E3AE0123E00E94A01498
:1043F0008091760490917704A0917804B09179042B
:10440000EDB7FEB738970FB6F894FEBF0FBEEDBFFD
:104410004DB75EB74F5F5F4F93CD8091850490910C
:104420008604A0918704B0918804EDB7FEB7389751
:104430000FB6F894FEBF0FBEEDBF4DB75EB74F5F2E
:104440005F4FD283C18323E631E0FA0133832283B5
:1044500084839583A683B7830E94BF322DB73EB76E
:10446000285F3F4F0FB6F8943EBF0FBE2DBF00919F
:10447000010410910204E090FC02F090FD0283E040
:1044800066E0AE0121E00E94A01480917F0490912B
:10449000800400D000D000D0EDB7FEB73196ADB7A4
:1044A000BEB71296DC93CE9311972EE731E033839B
:1044B0002283958384830E94BF32EDB7FEB7369680
:1044C0000FB6F894FEBF0FBEEDBF0091010410912E
:1044D0000204E090FC02F090FD0280E466E0AE0190
:1044E00021E00E94A01420918E048DB79EB70897FA
:1044F0000FB6F8949EBF0FBE8DBFEDB7FEB73196D5
:10450000ADB7BEB71296DC93CE93119782E991E0D6
:10451000938382832483158286E290E09783868347
:104520000E94BF32EDB7FEB738960FB6F894FEBFC3
:104530000FBEEDBF0091010410910204E090FC0257
:10454000F090FD028AE866E0AE0121E00E94A0142E
:104550008091710487FD79C22091710400D000D050
:1045600000D0EDB7FEB73196ADB7BEB71296DC936B
:10457000CE93119782E791E09383828324831582FF
:104580000E94BF32EDB7FEB736960FB6F894FEBF65
:104590000FBEEDBF0091010410910204E090FC02F7
:1045A000F090FD0284E166E341E954E0AFCC8091F4
:1045B000850490918604A0918704B0918804EDB79A
:1045C000FEB738970FB6F894FEBF0FBEEDBF4DB7DC
:1045D0005EB74F5F5F4FD283C18323E631E0FA01BC
:1045E0003383228384839583A683B7830E94BF325B
:1045F0002DB73EB7285F3F4F0FB6F8943EBF0FBEB2
:104600002DBF0091010410910204E090FC02F09093
:10461000FD0283E066E0AE0121E00E94A0148091DB
:10462000710487FD35C22091710400D000D000D004
:10463000EDB7FEB73196ADB7BEB71296DC93CE9309
:10464000119782E791E093838283248315820E94ED
:10465000BF32EDB7FEB736960FB6F894FEBF0FBE69
:10466000EDBF0091010410910204E090FC02F09073
:10467000FD0280E466E041E954E021E00E94A014DC
:1046800080917F049091800400D000D000D0EDB7DD
:10469000FEB73196ADB7BEB71296DC93CE931197A5
:1046A0002EE731E033832283958384830E94BF32D7
:1046B000EDB7FEB736960FB6F894FEBF0FBEEDBF4E
:1046C0000091010410910204E090FC02F090FD02C0
:1046D0008AE866E0AE0121E00E94A01420918E04D9
:1046E00000D000D000D0EDB7FEB73196ADB7BEB761
:1046F0001296DC93CE93119789E791E0938382839E
:1047000024831582EECB8091850490918604A0913C
:104710008704B0918804EDB7FEB738970FB6F894C8
:10472000FEBF0FBEEDBF4DB75EB74F5F5F4FD28389
:10473000C18323E631E0FA013383228384839583A6
:10474000A683B7830E94BF322DB73EB7285F3F4F85
:104750000FB6F8943EBF0FBE2DBF0091010410911B
:104760000204E090FC02F090FD0283E066E0AE01FE
:1047700021E00E94A0148091710487FDFDC020916A
:10478000710400D000D000D0EDB7FEB73196ADB7C0
:10479000BEB71296DC93CE93119782E791E0938394
:1047A0008283248315820E94BF32EDB7FEB736960E
:1047B0000FB6F894FEBF0FBEEDBF0091010410913B
:1047C0000204E090FC02F090FD0280E466E041E922
:1047D00054E021E00E94A01420918E0400D000D06B
:1047E00000D0EDB7FEB73196ADB7BEB71296DC93E9
:1047F000CE93119789E791E0938382832483158276
:104800000E94BF32EDB7FEB736960FB6F894FEBFE2
:104810000FBEEDBF0091010410910204E090FC0274
:10482000F090FD028AE866E0AE0121E00E94A0144B
:104830008091760490917704A0917804B0917904E6
:104840002DB73EB7285030400FB6F8943EBF0FBE8C
:104850002DBF4DB75EB74F5F5F4FEDB7FEB7D28349
:10486000C18322E831E0FA01338322838483958374
:10487000A683B7830E94BF322DB73EB7285F3F4F54
:104880000FB6F8943EBF0FBE2DBF009101041091EA
:104890000204E090FC02F090FD0284E166E3AE01C8
:1048A00023E00E94A01480917F049091800400D0A6
:1048B00000D000D0EDB7FEB73196ADB7BEB71296B7
:1048C000DC93CE9311972EE731E0338322839583D7
:1048D00084830E94BF32EDB7FEB736960FB6F894C8
:1048E000FEBF0FBEEDBF0091010410910204E090E5
:1048F000FC02F090FD0280E160E7AE0121E00E9441
:10490000A0148091890490918A04A0918B04B091A5
:104910008C042DB73EB7285030400FB6F8943EBFF8
:104920000FBE2DBF4DB75EB74F5F5F4FEDB7FEB700
:104930003FCB2091710400D000D000D0EDB7FEB77E
:104940003196ADB7BEB71296DC93CE9311978BE636
:1049500091E09383828380E091E0821B91099583AB
:1049600084830E94BF32EDB7FEB736960FB6F89437
:10497000FEBF0FBEEDBFC6CC2091710400D000D0A9
:1049800000D0EDB7FEB73196ADB7BEB71296DC9347
:10499000CE9311978BE691E09383828380E091E040
:1049A000821B9109958384830E94BF32EDB7FEB7C5
:1049B00036960FB6F894FEBF0FBEEDBFFECE209127
:1049C000710400D000D000D0EDB7FEB73196ADB77E
:1049D000BEB71296DC93CE9311978BE691E093834A
:1049E000828380E091E0821B9109958384830E94F9
:1049F000BF32EDB7FEB736960FB6F894FEBF0FBEC6
:104A0000EDBF1ECA2091710400D000D000D0EDB7D8
:104A1000FEB73196ADB7BEB71296DC93CE93119721
:104A20008BE691E09383828380E091E0821B910981
:104A3000958384830E94BF32EDB7FEB736960FB6DA
:104A4000F894FEBF0FBEEDBF3BCB2091710400D0A8
:104A500000D000D0EDB7FEB73196ADB7BEB7129615
:104A6000DC93CE9311978BE691E09383828380E071
:104A700091E0821B9109958384830E94BF32EDB738
:104A8000FEB736960FB6F894FEBF0FBEEDBF82CDCF
:104A90002091710400D000D000D0EDB7FEB7319660
:104AA000ADB7BEB71296DC93CE9311978BE691E02B
:104AB0009383828380E091E0821B910995838483B4
:104AC0000E94BF32EDB7FEB736960FB6F894FEBF20
:104AD0000FBEEDBFC6CD2F923F924F925F926F9265
:104AE0007F928F929F92AF92BF92DF92EF92FF924E
:104AF0000F931F93CF93DF9320907A0430907B0421
:104B000040907C0450907D0460917A0470917B0405
:104B100080917C0490917D04E4E68E2E912CA12C52
:104B2000B12CA50194010E944C317CE3E72EF12CBD
:104B3000012D112DCA01B901A80197010E944C3124
:104B4000D62E8DB79EB70C970FB6F8949EBF0FBEAA
:104B50008DBFCDB7DEB7219661E9662E64E0762E73
:104B6000EDB7FEB77282618288E991E09B838A8308
:104B7000CA01B901A80197010E944C31E62ECA0171
:104B8000B90128E130E040E050E00E944C316C83F4
:104B90001D82EE821F82D8861986C201B101A5014D
:104BA00094010E944C316A871B860E94BF328DB7E8
:104BB0009EB70C960FB6F8949EBF0FBE8DBF8CE3C8
:104BC00060E0A30121E00EED15EF9EE0E92EF12C4F
:104BD0000E94A014DF91CF911F910F91FF90EF9051
:104BE000DF90BF90AF909F908F907F906F905F907D
:104BF0004F903F902F900895EF92FF920F931F9345
:104C00008EE190E09093FD028093FC020E94D30E0F
:104C100080E090EF9093020480930104E090FC0206
:104C2000F090FD0288E062E240EB51E021E000E01C
:104C300010EF0E94A01488E292E0909362048093A7
:104C4000610481E0809360040E94BE1D8AE080932D
:104C50000704E3E0F4E08BE695E29183808312821F
:104C600013820E94B81D1F910F91FF90EF9008953D
:104C7000EF92FF920F931F938EE190E09093FD02CD
:104C80008093FC020E94D30E80E090EF9093020488
:104C900080930104E090FC02F090FD0288E062E263
:104CA00047EB51E021E000E010EF0E94A01486E104
:104CB00092E0909362048093610481E080936004A9
:104CC0000E94BE1D8AE080930704E3E0F4E08BE6D7
:104CD00095E291838083128213820E94B81D1F91F6
:104CE0000F91FF90EF900895EF92FF920F931F9313
:104CF0008EE190E09093FD028093FC020E94D30E1F
:104D000080E090EF9093020480930104E090FC0215
:104D1000F090FD0288E062E24EEB51E021E000E01D
:104D200010EF0E94A0148CE192E0909362048093B3
:104D3000610481E0809360040E94BE1D8AE080933C
:104D40000704E3E0F4E08BE695E29183808312822E
:104D500013820E94B81D1F910F91FF90EF9008954C
:104D6000EF92FF920F931F938EE190E09093FD02DC
:104D70008093FC020E94D30E80E090EF9093020497
:104D800080930104E090FC02F090FD0288E062E272
:104D900042EC51E021E000E010EF0E94A01482E21A
:104DA00092E0909362048093610481E080936004B8
:104DB0000E94BE1D8AE080930704E3E0F4E08BE6E6
:104DC00095E291838083128213820E94B81D1F9105
:104DD0000F91FF90EF900895AF92BF92CF92DF9224
:104DE000EF92FF920F931F93CF93DF938EE090E0AB
:104DF0009093FD028093FC020E94D30E8EE190E01E
:104E00009093FD028093FC028FEE9BE79093020447
:104E100080930104109209041092080482E36EE169
:104E20004EE72CE300E010E00E94411183E36FE1C4
:104E30004DE72BE30EE110E00E94590FB2E3BB2EC9
:104E4000B0920B048EE180930C04AEE7AA2EA092E0
:104E50000D048CE380930E04F8E9CF2EF7E2DF2EE9
:104E6000D0921004C0920F0400910104109102042A
:104E7000E090FC02F090FD0286E469E248EC51E02B
:104E800021E00E94A014C091FC02D091FD0200918B
:104E900008041091090482E36CE44EE72AE60E94BC
:104EA000411183E36DE44DE729E68E010E94590F1D
:104EB000B09211048CE480931204A09213048AE649
:104EC00080931404D0921604C0921504009101043A
:104ED00010910204E090FC02F090FD0286E467E588
:104EE0004EEC51E021E00E94A0148BE094E09093FE
:104EF00062048093610482E0809360040E94BE1D7E
:104F00008AE080930704E3E0F4E08BE695E2918386
:104F10008083128213820E94B81DDF91CF911F916E
:104F20000F91FF90EF90DF90CF90BF90AF900895DA
:104F30008F929F92AF92BF92CF92DF92EF92FF92A9
:104F40000F931F93CF93DF938EE090E09093FD0239
:104F50008093FC020E94D30E8EE190E09093FD02BC
:104F60008093FC028FEE9BE79093020480930104F0
:104F7000109209041092080488E068E043E52CE2EE
:104F800000E010E00E94411189E069E042E52BE277
:104F90000EE110E00E94590F68E0D62ED0923B043B
:104FA000D0923C0453E5A52EA0923D044CE2C42EC1
:104FB000C0923E048EE59BE29093400480933F04B0
:104FC0000091010410910204E090FC02F090FD02B7
:104FD0008CE165E144ED51E021E00E94A014C09114
:104FE000FC02D091FD0200910804109109048DE5A6
:104FF00068E048EA2CE20E9441118EE569E047EA48
:105000002BE28E010E94590F3DE5932E90924104B0
:10501000D092420428EA822E80924304C092440433
:1050200088E396E29093460480934504009101043E
:1050300010910204E090FC02F090FD028CE665E124
:1050400047EB51E021E00E94A014C091FC02D091F6
:10505000FD02009108041091090488E068E343E52B
:105060002CE50E94411189E069E342E52BE58E01C0
:105070000E94590FD092470498E3C92EC092480469
:10508000A09249048CE5B82EB0924A0484E796E2D7
:1050900090934C0480934B040091010410910204FE
:1050A000E090FC02F090FD0284E265E44AED51E0FC
:1050B00021E00E94A014C091FC02D091FD02009159
:1050C0000804109109048DE568E348EA2CE50E9484
:1050D00041118EE569E347EA2BE58E010E94590FE5
:1050E00090924D04C0924E0480924F04B0925004AE
:1050F00080EB96E290935204809351040091010456
:1051000010910204E090FC02F090FD0280E665E45C
:105110004EED51E021E00E94A01480E090EF9093CA
:10512000020480930104C091FC02D091FD02009121
:1051300008041091090488E068E643E52CE70E9422
:10514000411189E069E642E52BE78E010E94590F83
:10515000D092530408E6D02ED0925404A092550465
:105160001CE7C12EC09256048CEF95E29093580430
:10517000809357040091010410910204E090FC0216
:10518000F090FD028BE06EE648EE51E021E00E94D7
:10519000A014C091FC02D091FD020091080410916E
:1051A00009048DE568E648EA2CE70E9441118EE586
:1051B00069E647EA2BE78E010E94590F9092590445
:1051C000D0925A0480925B04C0925C048CEE96E20A
:1051D00090935E0480935D04009101041091020499
:1051E000E090FC02F090FD028AE66EE642EF51E0AC
:1051F00021E00E94A0148BE394E0909362048093DA
:10520000610486E0809360040E94BE1D8AE0809362
:105210000704E3E0F4E080ED9DE191838083128256
:1052200013820E94B81DDF91CF911F910F91FF90C3
:10523000EF90DF90CF90BF90AF909F908F900895A8
:105240000F931F93DF93CF930F92CDB7DEB78B01F0
:1052500089830E94BE1D898180930704E3E0F4E006
:1052600011830083128213820E94B81D0F90CF9188
:10527000DF911F910F9108953F924F925F926F922D
:105280007F928F929F92AF92BF92CF92DF92EF92D6
:10529000FF920F931F93DF93CF93CDB7DEB7382ED6
:1052A000662E542E422E702E8501862F642F422F9B
:1052B000272D0E944111652D6F5F442D4150272DF0
:1052C0002150862D8F5F84010E94590FE6E0832DC7
:1052D0008E9FF0011124EE0DFF1D608251824282EB
:1052E0007382D582C482CF91DF911F910F91FF907D
:1052F000EF90DF90CF90BF90AF909F908F907F9076
:105300006F905F904F903F900895CF92DF92EF9211
:10531000FF920F931F93CF93DF938EE190E09093D2
:10532000FD028093FC020E94D30E8FEE9BE79093C8
:105330000204809301049093090480930804C091AF
:10534000FC02D091FD0280E060E044E328E10FEE32
:105350001BE70E94411181E061E043E327E18E01F8
:105360000E94590F109217041092180404E3F02EB3
:10537000F092190418E1E12EE0921A0481E29BE216
:1053800090931C0480931B04C091FC02D091FD02F9
:10539000009108041091090484E360E04CE728E1DF
:1053A0000E94411185E361E04BE727E18E010E94F5
:1053B000590FF0921D0410921E04BCE7FB2EF092D0
:1053C0001F04E09220048EEF9AE2909322048093CF
:1053D0002104C091FC02D091FD02009108041091BB
:1053E00009048CE760E04FEA28E10E9441118DE753
:1053F00061E04EEA27E18E010E94590FF0922304EA
:1054000010922404AFEAFA2EF0922504E0922604CA
:105410008BED9AE29093280480932704C091FC02BC
:10542000D091FD02009108041091090480E068E128
:105430004FEA2AE60E94411181E069E14EEA29E63D
:105440008E010E94590F10922904E0922A04F092D2
:105450002B04FAE6EF2EE0922C0488E997E2909371
:105460002E0480932D04C091FC02D091FD02009186
:1054700008041091090480E06AE647E523E80E94E9
:10548000411181E06BE646E522E88E010E94590F4A
:1054900010922F04E0923004E7E5CE2EC092310442
:1054A00073E8D72ED092320488EB9AE290933404BA
:1054B00080933304C091FC02D091FD020091080456
:1054C0001091090487E56AE64FEA23E80E9441113A
:1054D00088E56BE64EEA22E88E010E94590FC092E1
:1054E0003504E0923604F0923704D092380485E90E
:1054F0009AE290933A0480933904809106048823B9
:1055000049F08FEF99E6A8E181509040A040E1F783
:1055100000C0000010920604DF91CF911F910F91FF
:10552000FF90EF90DF90CF900895EF92FF920F934E
:105530001F930E948529E090FC02F090FD0282E01A
:105540006AE14AEF51E021E000EC15EF0E94A0145F
:10555000E0916104F091620484E49BE293A382A34E
:1055600085E080935F041F910F91FF90EF90089565
:10557000EF92FF920F931F930E948529E090FC0207
:10558000F090FD0282E06AE14FEF51E021E000EC93
:1055900015EF0E94A014E0916104F091620484E48C
:1055A0009BE2958F848F84E080935F041F910F911D
:1055B000FF90EF900895EF92FF920F931F930E9438
:1055C0008529E090FC02F090FD0282E06AE143E070
:1055D00052E021E000EC15EF0E94A014E09161047C
:1055E000F091620484E49BE2918B808B83E0809352
:1055F0005F041F910F91FF90EF900895EF92FF923B
:105600000F931F930E948529E090FC02F090FD0209
:1056100082E06AE147E052E021E000EC15EF0E94F1
:10562000A014E0916104F091620484E49BE293870A
:10563000828782E080935F041F910F91FF90EF902B
:105640000895EF92FF920F931F930E948529E09097
:10565000FC02F090FD0282E06AE14CE052E021E0C1
:1056600000EC15EF0E94A014E0916104F091620437
:1056700084E49BE29583848381E080935F041F919F
:105680000F91FF90EF900895EF92FF920F931F9369
:105690000E948529E090FC02F090FD0282E06AE120
:1056A00040E152E021E000EC15EF0E94A0141092BE
:1056B0005F041F910F91FF90EF900895EF92FF927A
:1056C0000F931F9380919004882349F08091900458
:1056D000813099F01F910F91FF90EF9008950E94F3
:1056E00066188093900480919004813079F30E9431
:1056F000982780919004813069F70E948529E09075
:10570000FC02F090FD0282E06AE140E152E021E01B
:1057100000EC15EF0E94A01410925F0487E194E062
:10572000909362048093610486E08093600480E03B
:1057300090E0DC018093890490938A04A0938B0409
:10574000B0938C040E94BE1D8AE080930704E3E0BE
:10575000F4E081ED9DE190930404809303041282B0
:1057600013820E94B81D1F910F91FF90EF90089532
:105770005058BB27AA270ED04DC13ED130F043D19F
:1057800020F031F49F3F11F41EF433C10EF4E09584
:10579000E7FB29C1E92F4FD180F3BA1762077307DE
:1057A0008407950718F071F49EF567C10EF4E09533
:1057B0000B2EBA2FA02D0B01B90190010C01CA01CB
:1057C000A0011124FF27591B99F0593F50F4503E76
:1057D00068F11A16F040A22F232F342F4427585F68
:1057E000F3CF469537952795A795F0405395C9F780
:1057F0007EF41F16BA0B620B730B840BBAF0915038
:10580000A1F0FF0FBB1F661F771F881FC2F70EC0D6
:10581000BA0F621F731F841F48F4879577956795A9
:10582000B795F7959E3F08F0B3CF9395880F08F092
:105830009927EE0F9795879508950CD0EBC0E3D08C
:1058400040F0DAD030F021F45F3F19F0CCC05111B4
:1058500015C1CFC0F0D098F39923C9F35523B1F304
:10586000951B550BBB27AA2762177307840738F0CF
:105870009F5F5F4F220F331F441FAA1FA9F333D02E
:105880000E2E3AF0E0E830D091505040E695001CE2
:10589000CAF729D0FE2F27D0660F771F881FBB1F9E
:1058A000261737074807AB07B0E809F0BB0B802D78
:1058B000BF01FF2793585F4F2AF09E3F510568F0C4
:1058C00092C0DCC05F3FECF3983EDCF386957795A1
:1058D0006795B795F7959F5FC9F7880F911D9695C6
:1058E000879597F90895E1E0660F771F881FBB1F22
:1058F000621773078407BA0720F0621B730B840BCF
:10590000BA0BEE1F88F7E095089504D06894B111A2
:10591000B5C0089598D088F09F5790F0B92F992777
:10592000B751A0F0D1F0660F771F881F991F1AF0AA
:10593000BA95C9F712C0B13081F09FD0B1E0089597
:105940009CC0672F782F8827B85F39F0B93FCCF318
:10595000869577956795B395D9F73EF490958095A0
:10596000709561957F4F8F4F9F4F0895E89409C0C0
:1059700097FB3EF490958095709561957F4F8F4F82
:105980009F4F9923A9F0F92F96E9BB279395F69598
:10599000879577956795B795F111F8CFFAF4BB0F16
:1059A00011F460FF1BC06F5F7F4F8F4F9F4F16C07A
:1059B000882311F096E911C0772321F09EE8872F04
:1059C000762F05C0662371F096E8862F70E060E0C0
:1059D0002AF09A95660F771F881FDAF7880F969539
:1059E000879597F9089597F99F6780E870E060E0E0
:1059F00008959FEF80EC089500240A941616170668
:105A000018060906089500240A94121613061406AF
:105A100005060895092E0394000C11F4882352F012
:105A2000BB0F40F4BF2B11F460FF04C06F5F7F4FCA
:105A30008F4F9F4F089557FD9058440F551F59F0B1
:105A40005F3F71F04795880F97FB991F61F09F3F6B
:105A500079F087950895121613061406551FF2CF94
:105A60004695F1DF08C0161617061806991FF1CFE4
:105A700086957105610508940895E894BB2766270B
:105A80007727CB0197F908950BD0C4CFB5DF28F065
:105A9000BADF18F0952309F0A6CFABCF1124EECFD3
:105AA000CADFA0F3959FD1F3950F50E0551F629F79
:105AB000F001729FBB27F00DB11D639FAA27F00D67
:105AC000B11DAA1F649F6627B00DA11D661F829F8E
:105AD0002227B00DA11D621F739FB00DA11D621F73
